S0130000526F7665725F54657374312E73726563D3
S11300000C942A000C9457010C947E010C94A501C5
S11300100C9434090C940D090C9447000C9447007B
S11300200C9447000C9447000C9481080C945A08D3
S11300300C9447000C9447000C9447000C94470020
S11300400C9447000C9447000C9447000C94470010
S11300500C94470011241FBECFE5D8E0DEBFCDBF0E
S113006010E0A0E6B0E0E2E1F6E102C005900D92F6
S1130070AC38B107D9F720E0ACE8B0E001C01D927C
S1130080A03AB207E1F70E94DE020C94070B0C942D
S113009000004130A1F5813089F028F08230C9F0A8
S11300A0833011F108952AB381E090E002C0880FF3
S11300B0991F6A95E2F7822B8ABB089527B381E0E2
S11300C090E002C0880F991F6A95E2F7822B87BBE4
S11300D0089524B381E090E002C0880F991F6A95C7
S11300E0E2F7822B84BB089521B381E090E002C043
S11300F0880F991F6A95E2F7822B81BB08954111FD
S113010037C0813091F028F08230D9F0833029F162
S113011008952AB381E090E002C0880F991F6A9580
S1130120E2F7809582238ABB089527B381E090E0AB
S113013002C0880F991F6A95E2F78095822387BBD6
S1130140089524B381E090E002C0880F991F6A9556
S1130150E2F78095822384BB089521B381E090E087
S113016002C0880F991F6A95E2F78095822381BBAC
S113017008954130A1F5813089F028F08230C9F02A
S1130180833011F108952BB381E090E002C0880F11
S1130190991F6A95E2F7822B8BBB089528B381E0FF
S11301A090E002C0880F991F6A95E2F7822B88BB02
S11301B0089525B381E090E002C0880F991F6A95E5
S11301C0E2F7822B85BB089522B381E090E002C060
S11301D0880F991F6A95E2F7822B82BB089541111B
S11301E037C0813091F028F08230D9F0833029F182
S11301F008952BB381E090E002C0880F991F6A959F
S1130200E2F7809582238BBB089528B381E090E0C8
S113021002C0880F991F6A95E2F78095822388BBF4
S1130220089525B381E090E002C0880F991F6A9574
S1130230E2F78095822385BB089522B381E090E0A4
S113024002C0880F991F6A95E2F78095822382BBCA
S11302500895813079F028F08230A9F08330E1F0FC
S113026024C089B390E002C0959587956A95E2F71A
S11302708170089586B390E002C0959587956A953C
S1130280E2F78170089583B390E002C09595879555
S11302906A95E2F78170089580B390E002C0959565
S11302A087956A95E2F78170089580E008951F921A
S11302B00F920FB60F9211242F933F934F935F9396
S11302C06F937F938F939F93AF93BF93EF93FF931A
S11302D0E0919000F09191000995FF91EF91BF9109
S11302E0AF919F918F917F916F915F914F913F91CA
S11302F02F910F900FBE0F901F9018951F920F9281
S11303000FB60F9211242F933F934F935F936F93E4
S11303107F938F939F93AF93BF93EF93FF93E0915A
S11303208E00F0918F000995FF91EF91BF91AF91ED
S11303309F918F917F916F915F914F913F912F91F9
S11303400F900FBE0F901F9018951F920F920FB62B
S11303500F9211242F933F934F935F936F937F9347
S11303608F939F93AF93BF93EF93FF93E0918C0090
S1130370F0918D000995FF91EF91BF91AF919F91FD
S11303808F917F916F915F914F913F912F910F903A
S11303900FBE0F901F9018950F931F93CF93DF9369
S11303A000D000D0CDB7DEB7082F84E0898385E084
S11303B08A8386E08B8387E08C8310E014C0402F0F
S11303C050E0012E02C0559547950A94E2F741701A
S11303D0E1E0F0E0EC0FFD1FE10FF11D608180E032
S11303E00E94B9001F5F143050F30F900F900F90CC
S11303F00F90DF91CF911F910F91089541E063E039
S113040081E00E94B9008FE39FE10197F1F700C0FA
S1130410000040E063E081E00E94B9000895CF93BA
S1130420C82F40E061E081E00E94B90040E062E052
S113043081E00E94B9008C2F82958F700E94CC01BC
S11304400E94FE018C2F0E94CC010E94FE01CF91DC
S11304500895CF93C82F41E061E081E00E94B90084
S113046040E062E081E00E94B9008C2F82958F7099
S11304700E94CC010E94FE018C2F0E94CC010E949C
S1130480FE01CF9108952FEF83EF91E0215080403A
S11304909040E1F700C0000082E00E94CC010E947D
S11304A0FE0182E00E94CC010E94FE0188E00E94CD
S11304B0CC010E94FE018CE00E940F0281E00E94A8
S11304C00F020895CF93DF93EC0103C00E94290229
S11304D0219688818111FACFDF91CF9108951F93DE
S11304E0CF93DF93CDB7DEB72E970FB6F894DEBF68
S11304F00FBECDBFAC01892BD1F580E390E09A8388
S1130500898311E047C09A01ADECBCEC0E94F80A63
S11305109695879596958795969587959C01220F34
S1130520331F880F991F880F991F880F991F820FF7
S1130530931F9A01281B390BC901E12FF0E0992779
S1130540C096EE0FFF1F21E030E02C0F3D1FE20F9D
S1130550F31F918380839A010E94F80AAC01569597
S1130560479556954795569547951F5F01C010E0EE
S11305704115510541F60EC01150E12FF0E0EE0F88
S1130580FF1F81E090E08C0F9D1FE80FF91F808111
S11305900E9429021111F0CF2E960FB6F894DEBFF7
S11305A00FBECDBFDF91CF911F91089590E4699F55
S11305B0800D112480680E940F020895CF93DF9369
S11305C000D0CDB7DEB70E9490050E94C2050E94FC
S11305D058070E9488070E94AB0719828AE58A831C
S11305E00E948E07BE016E5F7F4FCE0101960E946E
S11305F0E7060E946D070E946A0989E799E00E9454
S11306009C090AE910E0F8018083C8010E946F0682
S11306100E940608F80181818130F1F580919A00E9
S11306208B30D0F182E30E94DC05C8010E946F0682
S11306300E94060827C00E946D070E946A0989E784
S113064099E00E949C090AE910E0F8018083C8013E
S11306500E946F060E940608F8018181813021F40E
S113066080919A008B3028F40E9454060E948E07D1
S11306704DC2FFEF21EE84E0F15020408040E1F7CD
S113068000C0000080919B00813009F03FC280913E
S11306909A008B3080F63AC287E30E94FA059FEFF6
S11306A0E9E6F8E19150E040F040E1F700C00000D5
S11306B00E9454060E948E070E946D070E946A09D8
S11306C089E799E00E949C090AE910E0F801808317
S11306D0C8010E946F060E940608F80182818130D9
S11306E0C1F090919D009130A1F485E50E94180617
S11306F0FFEF22E785E5F15020408040E1F700C09C
S113070000000E948E07C8010E946F060E9406081E
S113071048C090919D009130B9F08130A9F485E5ED
S11307200E9436069FEFE2E7F5E59150E040F04085
S1130730E1F700C000000E948E078AE990E00E9461
S11307406F060E9406082DC08130A9F485E50E9439
S113075036062FEF82E795E5215080409040E1F77F
S113076000C000000E948E078AE990E00E946F0694
S11307700E94060816C09130A1F485E50E9418066F
S1130780EFEFF2E725E5E150F0402040E1F700C04B
S113079000000E948E078AE990E00E946F060E9482
S11307A006088FEF99E6E8E181509040E040E1F7D8
S11307B000C000000E9454060E946D070E946A094E
S11307C089E799E00E949C090AE910E0F801808316
S11307D0C8010E946F060E940608FFEF20E782E02E
S11307E0F15020408040E1F700C00000F801818111
S11307F08130B1F490919A009B3090F087E30E948D
S1130800DC05C8010E946F060E940608FFEF20E77E
S113081082E0F15020408040E1F700C0000076C142
S1130820813029F480919A008A3008F0FCC08091CC
S11308309E00813009F4F7C00E94540685E50E94A9
S113084036069FEFE2E7F5E59150E040F040E1F72E
S113085000C00000BE016E5F7F4FCE0101960E9472
S1130860E7060E948E078AE990E00E946F060E94C4
S113087006082FEF80E792E0215080409040E1F796
S113088000C0000039C00E946D078AE990E00E9410
S11308906F060E940608EFEFF0E722E0E150F04017
S11308A02040E1F700C0000080919C008130D9F421
S11308B00E9454060E948E07BE016E5F7F4FCE01D8
S11308C001960E94E7068AE990E00E946F060E9462
S11308D006088FEF90E7E2E081509040E040E1F7B6
S11308E000C000000DC0FFEF21EE84E0F150204075
S11308F08040E1F700C0000080919C00813019F233
S113090080919C00813009F001C185E50E941806A0
S11309109FEFE2E7F5E59150E040F040E1F700C0D9
S11309200000BE016E5F7F4FCE0101960E94E70674
S11309308AE990E00E946F060E9406082FEF80E784
S113094092E0215080409040E1F700C0000030C0A8
S11309500E946D078AE990E00E946F060E940608D3
S113096080919D008130D9F00E9454060E948E0728
S1130970BE016E5F7F4FCE0101960E94E7068AE9B1
S113098090E00E946F060E940608EFEFF0E722E075
S1130990E150F0402040E1F700C000000DC08FEFAF
S11309A091EEE4E081509040E040E1F700C00000A7
S11309B080919D00813061F280919B00813021F013
S11309C080919A008B30A8F087E30E94DC050E9496
S11309D08E078AE990E00E946F060E940608FFEFE6
S11309E020E782E0F15020408040E1F700C00000A1
S11309F08DC080919E00813009F088C087E30E94F9
S1130A00FA050E948E078AE990E00E946F060E9410
S1130A1006089FEFE0E7F2E09150E040F040E1F794
S1130A2000C0000073C087E30E94FA058AE990E0E1
S1130A300E946F060E9406082FEF80E792E0215083
S1130A4080409040E1F700C000000E946A0989E7F5
S1130A5099E00E949C0980939A008AE990E00E94A0
S1130A606F060E94060843C00E946D070E946A092F
S1130A7089E799E00E949C090AE910E0F801808363
S1130A80C8010E946F060E940608F8018181813026
S1130A9029F580919E00813009F180919A008B3074
S1130AA0E8F00E945406BE016E5F7F4FCE010196AE
S1130AB00E94E70687E30E94DC05C8010E946F06D6
S1130AC00E940608FFEF20E782E0F15020408040BA
S1130AD0E1F700C000000E948E0718C09FEFE1EE0E
S1130AE0F4E09150E040F040E1F700C00000809154
S1130AF09B00813009F0B8CF80919A008A3008F4C5
S1130B00B3CF80919E00813009F4AECF2FEF81EEF8
S1130B1094E0215080409040E1F700C0000062CD95
S1130B2041E064E080E00E94490041E065E080E04B
S1130B300E94490041E066E080E00E94490041E0F3
S1130B4067E080E00E94490041E061E081E00E94AA
S1130B50490041E062E081E00E94490041E063E035
S1130B6081E00E9449000E94490841E064E082E07B
S1130B700E94490040E065E082E00E9449000E9432
S1130B804302089541E066E082E00E94490041E0AA
S1130B9067E082E00E94490041E062E083E00E9455
S1130BA0490041E063E083E00E94490041E067E0DE
S1130BB083E00E9449000895CF93C82F41E066E086
S1130BC082E00E94B90040E067E082E00E94B90040
S1130BD041E062E083E00E94B90040E063E083E02A
S1130BE00E94B9008C2F0E94EB0881E080939F0043
S1130BF0CF910895CF93C82F40E066E082E00E9431
S1130C00B90041E067E082E00E94B90040E062E0A0
S1130C1083E00E94B90041E063E083E00E94B900F0
S1130C208C2F0E94EB0882E080939F00CF9108955F
S1130C30CF93C82F40E066E082E00E94B90041E013
S1130C4067E082E00E94B90041E062E083E00E9434
S1130C50B90040E063E083E00E94B9008C2F0E9459
S1130C60EB0883E080939F00CF910895CF93C82F22
S1130C7041E066E082E00E94B90040E067E082E083
S1130C800E94B90040E062E083E00E94B90041E0C4
S1130C9063E083E00E94B9008C2F0E94EB0884E09B
S1130CA080939F00CF91089540E066E082E00E9427
S1130CB0B90040E067E082E00E94B90040E062E0F1
S1130CC083E00E94B90040E063E083E00E94B90041
S1130CD085E080939F0080E00E94EB080895CF9305
S1130CE0DF93EC0160E080E00E94D60280E690E0B1
S1130CF00E94620260E086E00E94D602888190E051
S1130D000E946F0260E089E00E94D60286E690E0CD
S1130D100E94620260E08DE00E94D6028D818330E1
S1130D20A9F028F4813041F0823059F01EC084309B
S1130D3091F08530A9F019C08BE690E00E94620220
S1130D4018C08FE690E00E94620213C083E790E02F
S1130D500E9462020EC086E790E00E94620209C00F
S1130D6089E790E00E94620204C08EE790E00E944E
S1130D70620261E080E00E94D60282E890E00E9474
S1130D80620261E084E00E94D6028981811105C07B
S1130D9087E790E00E94620217C08C81811105C030
S1130DA086E890E00E9462020FC08B81811105C029
S1130DB088E890E00E94620207C08A81811104C021
S1130DC08AE890E00E946202DF91CF9108950F9328
S1130DD01F93CF93DF938C01EB010E946A0989E78B
S1130DE099E00E949C0980939A008AE990E00E940D
S1130DF06F068AE5F80180830CC00E9451088FE5D4
S1130E009AEE0197F1F700C00000F80180818F5F2E
S1130E108083F8018081843B80F30E946A0989E71A
S1130E2099E00E949C0980939A008AE990E00E94CC
S1130E306F06F801808188830BC00E9451088FE5FA
S1130E409AEE0197F1F700C00000888181508883F1
S1130E5088818111F2CF0E946A0989E799E00E9492
S1130E609C0980939A008AE990E00E946F06188298
S1130E700BC00E945108EFE5FAEE3197F1F700C07C
S1130E80000088818F5F888388818B3590F30E946E
S1130E906A0989E799E00E949C0980939A008AE98B
S1130EA090E00E946F06DF91CF911F910F910895FA
S1130EB040E063E082E00E94490040E060E082E0BC
S1130EC00E94490040E061E082E00E94490040E065
S1130ED062E082E00E9449000895CF93DF9360E0CE
S1130EE082E00E942901CAE9D0E08C8361E082E0BB
S1130EF00E9429018B8362E082E00E9429018A8397
S1130F0063E082E00E9429018983DF91CF910895F3
S1130F1041E063E080E00E944900089541E063E01D
S1130F2080E00E94B9002FEF81EE94E021508040D0
S1130F309040E1F700C0000040E063E080E00E94E0
S1130F40B9002FEF81EE94E0215080409040E1F70A
S1130F5000C0000008950E945B0908951F93CF9379
S1130F60DF9300D000D000D0CDB7DEB7AC01892B21
S1130F7091F580E30E9466093FC09A01ADECBCEC98
S1130F800E94F80A969587959695879596958795E4
S1130F909C01220F331F880F991F880F991F880FF8
S1130FA0991F820F931F9A01281B390BC901E1E095
S1130FB0F0E0EC0FFD1FE10FF11D805D80839A01CD
S1130FC00E94F80AAC015695479556954795569553
S1130FD047951F5F01C010E04115510571F60AC025
S1130FE01150E1E0F0E0EC0FFD1FE10FF11D8081F5
S1130FF00E9466091111F4CF26960FB6F894DEBF4D
S11310000FBECDBFDF91CF911F910895CF93DF9392
S113101084E40E946609CAE9D0E0888190E00E94D5
S1131020AE0786E40E946609898190E00E94AE07BB
S113103082E40E9466098AE30E9466098C8190E03A
S11310400E94AE0782E50E9466098AE30E9466094F
S11310508B8190E00E94AE078CE40E9466098AE3CB
S11310600E9466098A8190E00E94AE0784E40E948F
S1131070660989E60E94660982E70E9466098AE396
S11310800E9466098D8190E00E94AE07DF91CF91A6
S1131090089541E065E083E00E9449000E94A808A9
S11310A0089527E1829FC001112488519C4F0E941A
S11310B0E80808951F920F920FB60F9211242F93F0
S11310C03F934F935F936F937F938F939F93AF93CC
S11310D0BF93EF93FF93E0919400F09195000995ED
S11310E0FF91EF91BF91AF919F918F917F916F91FC
S11310F05F914F913F912F910F900FBE0F901F90D2
S113110018951F920F920FB60F9211242F933F93AD
S11311104F935F936F937F938F939F93AF93BF93FB
S1131120EF93FF93E0919200F09193000995FF9162
S1131130EF91BF91AF919F918F917F916F915F914B
S11311404F913F912F910F900FBE0F901F901895C4
S11311508FB590B78E7F90BF8FBD8FB590B78260EB
S113116090BF8FBD8EB59FB588609FBD8EBD8EB577
S11311709FB580619FBD8EBD8FB590B7806890BFCD
S11311808FBD8FB590B78F7B90BF8FBD8FB590B754
S1131190806290BF8FBD8FB590B78F7E90BF8FBD9B
S11311A08EB59FB58E7F9FBD8EBD8EB59FB5826077
S11311B09FBD8EBD8EB59FB58B7F9FBD8EBD80E4D8
S11311C09CE997BD86BD8FEF90E099BD88BD0895D9
S11311D09BBD8ABD089595B5987F95BD95B59360DF
S11311E095BD95B5986095BD95B5906495BD95B53B
S11311F0906295BD95B59F7E95BD682F70E080E0A7
S113120090E00E94DD0923E333E343E250E40E94CB
S1131210410A0E94AC0963BD08951F920F920FB654
S11312200F9211242F933F934F935F936F937F9368
S11312308F939F93AF93BF93EF93FF93E0919800A5
S1131240F09199000995FF91EF91BF91AF919F9112
S11312508F917F916F915F914F913F912F910F905B
S11312600FBE0F901F9018951F920F920FB60F92FA
S113127011242F933F934F935F936F937F938F9397
S11312809F93AF93BF93EF93FF93E0919600F091F8
S113129097000995FF91EF91BF91AF919F918F9125
S11312A07F916F915F914F913F912F910F900FBE5E
S11312B00F901F90189586E880BD87E689B98AB19A
S11312C088608AB98AB180618AB908958CB95D9BB6
S11312D0FECF089541E064E082E00E94B90085E316
S11312E08A95F1F7000040E064E082E00E94B900D2
S11312F00895CF9312BE83E083BF65E082E00E942D
S113130029018823D1F3C0E007C008B600FE04C059
S113131081E088BFCF5F12BE65E082E00E942901B0
S1131320813099F38C2F90E0982F882722B713BE31
S1131330820F911DCF910895FC0109959C01A8E2AB
S1131340B7E80E94F80A20E231EA47E050E00E9440
S1131350D60A8FEE820F08950E94200A88F09F57C4
S113136098F0B92F9927B751B0F0E1F0660F771FC5
S1131370881F991F1AF0BA95C9F714C0B13091F0BB
S11313800E943A0AB1E008950C943A0A672F782F24
S11313908827B85F39F0B93FCCF386957795679580
S11313A0B395D9F73EF490958095709561957F4FEC
S11313B08F4F9F4F0895E89409C097FB3EF4909592
S11313C08095709561957F4F8F4F9F4F9923A9F01A
S11313D0F92F96E9BB279395F695879577956795A9
S11313E0B795F111F8CFFAF4BB0F11F460FF1BC0ED
S11313F06F5F7F4F8F4F9F4F16C0882311F096E980
S113140011C0772321F09EE8872F762F05C066232D
S113141071F096E8862F70E060E02AF09A95660FE6
S1131420771F881FDAF7880F9695879597F908959F
S113143057FD9058440F551F59F05F3F71F0479581
S1131440880F97FB991F61F09F3F79F08795089566
S1131450121613061406551FF2CF4695F1DF08C085
S1131460161617061806991FF1CF869571056105A2
S113147008940895E894BB2766277727CB0197F94A
S113148008950E94540A0C94C50A0E94B70A38F0C1
S11314900E94BE0A20F0952311F00C94AE0A0C941D
S11314A0B40A11240C943B0A0E94180A70F3959F05
S11314B0C1F3950F50E0551F629FF001729FBB2747
S11314C0F00DB11D639FAA27F00DB11DAA1F649FE3
S11314D06627B00DA11D661F829F2227B00DA11D96
S11314E0621F739FB00DA11D621F839FA00D611D1C
S11314F0221F749F3327A00D611D231F849F600D3D
S1131500211D822F762F6A2F11249F5750409AF065
S1131510F1F088234AF0EE0FFF1FBB1F661F771FF1
S1131520881F91505040A9F79E3F510580F00C94BC
S1131530AE0A0C943B0A5F3FE4F3983ED4F38695DD
S113154077956795B795F795E7959F5FC1F7FE2B5C
S1131550880F911D9695879597F9089597F99F6738
S113156080E870E060E008959FEF80EC0895002427
S11315700A941616170618060906089500240A94F4
S113158012161306140605060895092E0394000C7A
S113159011F4882352F0BB0F40F4BF2B11F460FF09
S11315A004C06F5F7F4F8F4F9F4F0895A1E21A2EA3
S11315B0AA1BBB1BFD010DC0AA1FBB1FEE1FFF1FF3
S11315C0A217B307E407F50720F0A21BB30BE40B43
S11315D0F50B661F771F881F991F1A9469F760958A
S11315E07095809590959B01AC01BD01CF01089544
S11315F0A29FB001B39FC001A39F700D811D112450
S1131600911DB29F700D811D1124911D0895F894B0
S1051610FFCF06
S1131612446973743A004469723A0046574400427A
S11316224357005257004C460053746F7000554E96
S10F16324B004F424A00420052004C00A2
S9030000FC
