:100000000C942A000C9457010C947E010C94A501C9
:100010000C94C10C0C949A0C0C9447000C941D0485
:100020000C9447000C9447000C94110C0C94EA0BB0
:100030000C9447000C9447000C9447000C94470024
:100040000C9447000C9447000C9447000C94470014
:100050000C94470011241FBECFE5D8E0DEBFCDBF12
:1000600010E0A0E6B0E0ECE2FDE102C005900D92E8
:10007000A83AB107D9F727E0A8EAB0E001C01D927D
:10008000A730B207E1F70E94E3080C94940E0C9499
:1000900000004130A1F5813089F028F08230C9F0AC
:1000A000833011F108952AB381E090E002C0880FF7
:1000B000991F6A95E2F7822B8ABB089527B381E0E6
:1000C00090E002C0880F991F6A95E2F7822B87BBE8
:1000D000089524B381E090E002C0880F991F6A95CB
:1000E000E2F7822B84BB089521B381E090E002C047
:1000F000880F991F6A95E2F7822B81BB0895411101
:1001000037C0813091F028F08230D9F0833029F166
:1001100008952AB381E090E002C0880F991F6A9584
:10012000E2F7809582238ABB089527B381E090E0AF
:1001300002C0880F991F6A95E2F78095822387BBDA
:10014000089524B381E090E002C0880F991F6A955A
:10015000E2F78095822384BB089521B381E090E08B
:1001600002C0880F991F6A95E2F78095822381BBB0
:1001700008954130A1F5813089F028F08230C9F02E
:10018000833011F108952BB381E090E002C0880F15
:10019000991F6A95E2F7822B8BBB089528B381E003
:1001A00090E002C0880F991F6A95E2F7822B88BB06
:1001B000089525B381E090E002C0880F991F6A95E9
:1001C000E2F7822B85BB089522B381E090E002C064
:1001D000880F991F6A95E2F7822B82BB089541111F
:1001E00037C0813091F028F08230D9F0833029F186
:1001F00008952BB381E090E002C0880F991F6A95A3
:10020000E2F7809582238BBB089528B381E090E0CC
:1002100002C0880F991F6A95E2F78095822388BBF8
:10022000089525B381E090E002C0880F991F6A9578
:10023000E2F78095822385BB089522B381E090E0A8
:1002400002C0880F991F6A95E2F78095822382BBCE
:100250000895813079F028F08230A9F08330E1F000
:1002600024C089B390E002C0959587956A95E2F71E
:100270008170089586B390E002C0959587956A9540
:10028000E2F78170089583B390E002C09595879559
:100290006A95E2F78170089580B390E002C0959569
:1002A00087956A95E2F78170089580E008951F921E
:1002B0000F920FB60F9211242F933F934F935F939A
:1002C0006F937F938F939F93AF93BF93EF93FF931E
:1002D000E091AC00F091AD000995FF91EF91BF91D5
:1002E000AF919F918F917F916F915F914F913F91CE
:1002F0002F910F900FBE0F901F9018951F920F9285
:100300000FB60F9211242F933F934F935F936F93E8
:100310007F938F939F93AF93BF93EF93FF93E0915E
:10032000AA00F091AB000995FF91EF91BF91AF91B9
:100330009F918F917F916F915F914F913F912F91FD
:100340000F900FBE0F901F9018951F920F920FB62F
:100350000F9211242F933F934F935F936F937F934B
:100360008F939F93AF93BF93EF93FF93E091A80078
:10037000F091A9000995FF91EF91BF91AF919F91E5
:100380008F917F916F915F914F913F912F910F903E
:100390000FBE0F901F901895E3EBF0E088EB90E014
:1003A0009183808313821282EFEAF0E08BED95E077
:1003B0009383828311821082A7EBB0E014969C9302
:1003C0008E9313971296FC93EE93119708950F93C3
:1003D0001F93CF93DF93EC010E943A068091AE0009
:1003E000811105C00E94CC0181E08093AE0020976E
:1003F00009F02496CE0101978A3D954008F056C039
:10040000E091B300F091B400A3EBB0E002C0DF01D3
:10041000FC01828193818C179D0720F4808191815A
:100420000097A9F780E0EF3AF80709F442C00D9170
:100430001C9111970C5F1F4F808191818D939C932C
:10044000828193818C1B9D0B8930910510F1AF0146
:100450004C0F5D1FDA0113969C938E931297D383F2
:10046000C28312962D913C91139763EB70E001C00B
:10047000BD01EB01A881B98112968D919C911397D2
:1004800082179307A8F3EA01B983A883DB014D9390
:100490005C93228133818091600090916100821B86
:1004A000930B909361008093600005C000E010E022
:1004B00002C000E010E00E94CA06C801DF91CF919F
:1004C0001F910F9108950F931F93CF93DF93009780
:1004D00041F1EC018C01045011090E943A06F80127
:1004E00042815381A3EBB0E001C0DF01ED91FC91AB
:1004F00011972281338124173507B8F32497F983A4
:10050000E8830D931C938A819B8120916000309138
:100510006100820F931F90936100809360000E949E
:10052000CA06DF91CF911F910F910895FC010396A8
:10053000928381832FEF3FEF3483238396838583D8
:100540009087878310820895FC0111861086089594
:10055000CF93DF939C01FB01DC011196CD91DC91DF
:100560001297D383C2838C819D81958384838C81F0
:100570009D81DC0113967C936E9312977D836C832F
:1005800031872087F90180818F5F8083DF91CF9150
:100590000895CF93DF93EB01488159814F3F2FEFAF
:1005A000520721F4FC01A781B0850DC0DC01139630
:1005B00001C0DF011296ED91FC91139720813181EA
:1005C00042175307B0F71296ED91FC911397FB83F6
:1005D000EA83D583C483BD83AC831396DC93CE9327
:1005E000129799878887FC0120812F5F2083DF91F4
:1005F000CF910895CF93DF93FC01A085B185C2818F
:10060000D381848195819D838C83C481D5818281AE
:1006100093819B838A8311968D919C911297E81701
:10062000F90731F48481958112969C938E931197EA
:10063000118610868C9181508C93DF91CF91089513
:100640001BBC8DE88ABD8BE08EBD89B7806189BFF8
:10065000089531E1FC013083319722E22083319704
:10066000A3E3A08331976083319770833197108221
:10067000319760E8608331971082319762E0608340
:10068000319763E06083319764E06083319765E080
:100690006083319766E06083319767E060833197CC
:1006A00068E06083319769E06083319760E160833F
:1006B00031973083319732E13083319733E13083A2
:1006C000319734E13083319735E13083319736E12A
:1006D0003083319737E13083319738E13083319778
:1006E00039E13083319730E23083319731E2308322
:1006F00031972083319723E22083319740833197CC
:100700005083319726E22083319727E22083319767
:1007100028E22083319729E22083319720E3208348
:10072000319721E32083869708950E942003A091AA
:10073000F706B091F806CD91CDBFDD91DEBFFF91F8
:10074000EF91DF91CF91BF91AF919F918F917F9169
:100750006F915F914F913F912F911F910F91FF905A
:10076000EF90DF90CF90BF90AF909F908F907F9051
:100770006F905F904F903F902F901F900F900FBE03
:100780000F90089581E008950F920FB6F8940F929C
:100790001F9211242F923F924F925F926F927F92FD
:1007A0008F929F92AF92BF92CF92DF92EF92FF9281
:1007B0000F931F932F933F934F935F936F937F9369
:1007C0008F939F93AF93BF93CF93DF93EF93FF9359
:1007D000A091F706B091F8060DB60D920EB60D92E7
:1007E0000E947D07A091F706B091F806CD91CDBF8C
:1007F000DD91DEBFFF91EF91DF91CF91BF91AF917E
:100800009F918F917F916F915F914F913F912F9128
:100810001F910F91FF90EF90DF90CF90BF90AF901E
:100820009F908F907F906F905F904F903F902F9010
:100830001F900F900FBE0F9008951F920F920FB64A
:100840000F9211242F933F934F935F936F937F9356
:100850008F939F93AF93BF93EF93FF930E944006B4
:10086000FF91EF91BF91AF919F918F917F916F9188
:100870005F914F913F912F910F900FBE0F901F905E
:100880001895E091BF06F091C0068081811107C0E4
:100890008FEF9FEF90939706809396060895E091CF
:1008A000BF06F091C0060580F681E02D0680F78135
:1008B000E02D828193819093970680939606089508
:1008C000CF93DF93EC018F89988D0E946302CE0154
:1008D0000E946302DF91CF9108956F927F928F9271
:1008E0009F92AF92BF92CF92DF92EF920F931F939E
:1008F000CF93DF93CDB7DEB74C01F5018789908D9B
:10090000215031093C01620E731E20E00FC0822F7E
:1009100090E0FB01E80FF91F3081D501A80FB91F46
:1009200059963C938081882319F02F5F203178F30A
:10093000F50110A6F3E0FE1520F40F2EF3E0EF2EE4
:10094000F02DF501E68AC50102960E94A402C501B8
:100950000C960E94A402F501B186A08684E090E086
:100960008E19910995878487B38AA28A11A612A647
:1009700013A614A615A6A801B401C3010E94290359
:10098000F50191838083C114D10419F0F601B1827D
:10099000A082DF91CF911F910F91EF90DF90CF90C8
:1009A000BF90AF909F908F907F906F900895CF935E
:1009B000C0E010C08C2F90E09C01220F331F220F4B
:1009C000331F220F331F820F931F8D52994F0E94A6
:1009D0009602CF5FC43070F38AEC96E00E949602D4
:1009E00081EC96E00E94960284EB96E00E949602CB
:1009F0008BEA96E00E94960281EA96E00E949602B7
:100A00008AEC96E09093C0068093BF0681EC96E056
:100A10009093BE068093BD06CF910895CF93DF9348
:100A2000EC010FB6F8940F928091A0068F5F80932F
:100A3000A0068091F7069091F806892B59F4D0937F
:100A4000F806C093F7068091A006813099F40E94C1
:100A5000D70410C080919C0681110CC0E091F7066C
:100A6000F091F80696898E89891720F0D093F806C0
:100A7000C093F706809198068F5F809398062E8921
:100A800080919D06821710F420939D0630E0BE01F0
:100A90006E5F7F4FC901880F991F880F991F880FBC
:100AA000991F820F931F8D52994F0E94A8020F9099
:100AB0000FBE80919C06882321F08091F7069091CB
:100AC000F806DF91CF910895FF920F931F93CF9374
:100AD000DF93EC01F62E00919E0610919F06809107
:100AE000F7069091F80602960E94FA02CF3F8FEF28
:100AF000D80769F4FF2059F06091F7067091F80665
:100B00006E5F7F4F81EA96E00E94A8022FC0C00F5F
:100B1000D11FE091F706F091F806D383C283C01786
:100B2000D10768F46091F7067091F8068091BD06D0
:100B30009091BE066E5F7F4F0E94C90217C0609100
:100B4000F7067091F8068091BF069091C0066E5F1F
:100B50007F4F0E94C9028091960690919706C81710
:100B6000D90720F4D0939706C0939606DF91CF91D2
:100B70001F910F91FF9008952F923F924F925F9295
:100B80006F927F928F929F92AF92BF92CF92DF929D
:100B9000EF92FF920F931F93CF93DF933C011B01C2
:100BA0005A012901CA010E94E7016C01892B71F0E9
:100BB0008EE290E00E94E701EC01892B19F0D88EBB
:100BC000CF8A06C0C6010E94630202C0C0E0D0E026
:100BD000209791F0950140E050E0812C912C5E012E
:100BE0006701E02E8201B101C3010E946D04CE01B4
:100BF0000E940E0581E001C08FEFDF91CF911F9120
:100C00000F91FF90EF90DF90CF90BF90AF909F90AB
:100C10008F907F906F905F904F903F902F900895AE
:100C2000EF92FF920F930F2EF4E9EF2EF6E0FF2ED6
:100C3000F02D00E020E030E04AEF50E062E670E0A6
:100C400088E797E00E94BC05813081F4F8948FEF2B
:100C50009FEF909397068093960681E080939C0681
:100C600010929F0610929E060E9495030F91FF908E
:100C7000EF900895809193068F5F80939306089577
:100C8000EF92FF920F931F93CF93DF938091930680
:100C9000811173C0E0909E06F0909F068FEFE81AD6
:100CA000F80AF0929F06E0929E06E114F104B9F46E
:100CB0008091BF069091C0062091BD063091BE067E
:100CC0003093C0062093BF069093BE068093BD0666
:100CD000809199068F5F809399060E9441048091CC
:100CE000960690919706E816F90608F44BC0E09135
:100CF000BF06F091C0068081811107C08FEF9FEF82
:100D000090939706809396063DC0E091BF06F091C0
:100D1000C0060580F681E02DC681D7818A819B813E
:100D2000E816F90628F490939706809396062AC051
:100D30008E010E5F1F4FC8010E94FA028C899D89A7
:100D4000892B21F0CE010C960E94FA028E89909197
:100D50009D06981710F480939D0690E09C01220F49
:100D6000331F220F331F220F331F820F931FB8012F
:100D70008D52994F0E94A802BACF80919B068F5F37
:100D800080939B0680E0DF91CF911F910F91FF90A0
:100D9000EF9008950F931F93CF93DF930FB6F894BE
:100DA0000F928091930681508093930680919306D1
:100DB000811152C08091A006811133C04DC0E091D5
:100DC000B906F091BA06C681D781CE010C960E9471
:100DD000FA028E010E5F1F4FC8010E94FA028E892F
:100DE00090919D06981710F480939D0690E09C01C9
:100DF000220F331F220F331F220F331F820F931F27
:100E0000B8018D52994F0E94A8029E89E091F70681
:100E1000F091F8068689981730F081E080939A0661
:100E200002C0C0E0D0E08091B4068111C8CFCD2BC4
:100E300011F00E944104C0919B06CC2359F00E94FE
:100E40004006882319F081E080939A06C150B9F7D3
:100E500010929B0680919A060F900FBE80E0DF9162
:100E6000CF911F910F910895CF93DF93EC01892BC0
:100E700049F00E943A0660E0CE010E9464050E949B
:100E8000CA0601C080E0811102C00E94C403DF9144
:100E9000CF910895CF93DF9324C00E943A06C0916A
:100EA000AB060E94CA06CC23E1F00FB6F8940F926D
:100EB000E091B006F091B106C681D781CE010296CD
:100EC0000E94FA028091A00681508093A006809132
:100ED000AA0681508093AA060F900FBECE010E94F1
:100EE00060048091AA068111D8CFDF91CF91089537
:100EF0000E944A070E94C403FBCF80919306882377
:100F000021F081E080939A06089510929A0620912C
:100F10009D0601C02150822F90E0FC01EE0FFF1FC3
:100F2000EE0FFF1FEE0FFF1FE80FF91FED52F94FF5
:100F30003081332379F3AC01440F551F440F551F03
:100F4000440F551F480F591FDF010180F281E02D2A
:100F50000280F381E02D1296FC93EE9311974A5292
:100F6000594FE417F50729F442815381FD0152835B
:100F70004183FC01EE0FFF1FEE0FFF1FEE0FFF1F5F
:100F80008E0F9F1FFC01ED52F94F0180F281E02D81
:100F9000868197819093F8068093F70620939D06AB
:100FA00008950F931F93CF93DF9300D000D0CDB758
:100FB000DEB7082F84E0898385E08A8386E08B830F
:100FC00087E08C8310E014C0402F50E0012E02C057
:100FD000559547950A94E2F74170E1E0F0E0EC0F97
:100FE000FD1FE10FF11D608180E00E94B9001F5FCD
:100FF000143050F30F900F900F900F90DF91CF911E
:101000001F910F91089541E063E081E00E94B900D3
:101010008FE39FE10197F1F700C0000040E063E03B
:1010200081E00E94B9000895CF93C82F40E061E0AD
:1010300081E00E94B90040E062E081E00E94B900D6
:101040008C2F82958F700E94D1070E9403088C2FED
:101050000E94D1070E940308CF910895CF93C82F13
:1010600041E061E081E00E94B90040E062E081E09F
:101070000E94B9008C2F82958F700E94D1070E9428
:1010800003088C2F0E94D1070E940308CF91089576
:101090002FEF83EF91E0215080409040E1F700C0B6
:1010A000000082E00E94D1070E94030882E00E94B3
:1010B000D1070E94030888E00E94D1070E9403081C
:1010C0008CE00E94140881E00E9414080895CF93D8
:1010D000DF93EC0103C00E942E08219688818111C4
:1010E000FACFDF91CF9108951F93CF93DF93CDB7C0
:1010F000DEB72E970FB6F894DEBF0FBECDBFAC01A2
:10110000892BD1F580E390E09A83898311E047C071
:101110009A01ADECBCEC0E94850E9695879596954C
:101120008795969587959C01220F331F880F991FED
:10113000880F991F880F991F820F931F9A01281BF0
:10114000390BC901E12FF0E09927C096EE0FFF1F80
:1011500021E030E02C0F3D1FE20FF31F91838083CD
:101160009A010E94850EAC01569547955695479574
:10117000569547951F5F01C010E04115510541F696
:101180000EC01150E12FF0E0EE0FFF1F81E090E064
:101190008C0F9D1FE80FF91F80810E942E081111EE
:1011A000F0CF2E960FB6F894DEBF0FBECDBFDF9105
:1011B000CF911F91089590E4699F800D112480685C
:1011C0000E94140808950E9413090E9445090E9474
:1011D0006A0A0E949A0A0E94A00AE12CF12C04E0FB
:1011E00020E030E04AEF50E067E670E083ED9BE0FE
:1011F0000E94BC0503E020E030E04AEF50E06EE6DC
:1012000070E08AE49BE00E94BC0502E020E030E050
:101210004AEF50E064E770E088EC9BE00E94BC0578
:101220000E941006FFCF41E064E080E00E94490088
:1012300041E065E080E00E94490041E066E080E036
:101240000E94490041E067E080E00E94490041E0DF
:1012500061E081E00E94490041E062E081E00E949B
:10126000490041E063E081E00E9449000E94E20BF6
:1012700041E064E082E00E94490040E065E082E0F5
:101280000E9449000E944808089541E066E082E01B
:101290000E94490041E067E082E00E94490041E08D
:1012A00062E083E00E94490041E063E083E00E9445
:1012B000490041E067E083E00E9449000895CF9330
:1012C000C82F41E066E082E00E94B90040E067E09C
:1012D00082E00E94B90041E062E083E00E94B90030
:1012E00040E063E083E00E94B9008C2F0E94780CFC
:1012F00081E080930607CF910895CF93C82F40E0F7
:1013000066E082E00E94B90041E067E082E00E946E
:10131000B90040E062E083E00E94B90041E063E090
:1013200083E00E94B9008C2F0E94780C82E08093A9
:101330000607CF910895CF93C82F40E066E082E082
:101340000E94B90041E067E082E00E94B90041E0FC
:1013500062E083E00E94B90040E063E083E00E9425
:10136000B9008C2F0E94780C83E080930607CF9100
:101370000895CF93C82F41E066E082E00E94B90053
:1013800040E067E082E00E94B90040E062E083E074
:101390000E94B90041E063E083E00E94B9008C2F15
:1013A0000E94780C84E080930607CF91089540E076
:1013B00066E082E00E94B90040E067E082E00E94BF
:1013C000B90040E062E083E00E94B90040E063E0E1
:1013D00083E00E94B90085E08093060780E00E94C8
:1013E000780C0895CF93DF93EC0160E080E00E94D9
:1013F000DB088BE790E00E94670860E086E00E94CF
:10140000DB08888190E00E94740860E089E00E9417
:10141000DB0881E890E00E94670860E08DE00E94B0
:10142000DB088D818330A9F028F4813041F08230CF
:1014300059F01EC0843091F08530A9F019C086E8BB
:1014400090E00E94670818C08AE890E00E94670850
:1014500013C08EE890E00E9467080EC081E990E01A
:101460000E94670809C084E990E00E94670804C0F0
:1014700089E990E00E94670861E080E00E94DB0853
:101480008DE990E00E94670861E084E00E94DB083B
:101490008981811105C082E990E00E94670817C028
:1014A0008C81811105C081EA90E00E9467080FC01D
:1014B0008B81811105C083EA90E00E94670807C014
:1014C0008A81811104C085EA90E00E946708DF915B
:1014D000CF91089540E063E082E00E94490040E03F
:1014E00060E082E00E94490040E061E082E00E940A
:1014F000490040E062E082E00E9449000895CF93F5
:10150000DF9360E082E00E942901C1E0D7E08C8394
:1015100061E082E00E9429018B8362E082E00E9408
:1015200029018A8363E082E00E9429018983DF9197
:10153000CF91089541E063E080E00E944900089562
:101540000E94E80C08951F93CF93DF9300D000D042
:1015500000D0CDB7DEB7AC01892B91F580E30E94B6
:10156000F30C3FC09A01ADECBCEC0E94850E969541
:10157000879596958795969587959C01220F331FA1
:10158000880F991F880F991F880F991F820F931F2B
:101590009A01281B390BC901E1E0F0E0EC0FFD1FB7
:1015A000E10FF11D805D80839A010E94850EAC01E0
:1015B0005695479556954795569547951F5F01C097
:1015C00010E04115510571F60AC01150E1E0F0E05C
:1015D000EC0FFD1FE10FF11D80810E94F30C111132
:1015E000F4CF26960FB6F894DEBF0FBECDBFDF91C5
:1015F000CF911F910895CF93DF9384E40E94F30C61
:101600008AE30E94F30CC1E0D7E0888190E00E9459
:10161000A30A86E40E94F30C8AE30E94F30C8981FA
:1016200090E00E94A30A82E40E94F30C8AE30E94E5
:10163000F30C8C8190E00E94A30A82E50E94F30CD7
:101640008AE30E94F30C8B8190E00E94A30A8CE451
:101650000E94F30C8AE30E94F30C8A8190E00E94BE
:10166000A30A84E40E94F30C89E60E94F30C82E74B
:101670000E94F30C8AE30E94F30C8D8190E00E949B
:10168000A30A8DE00E94F30C8AE00E94F30CDF9124
:10169000CF91089580910207813009F5809101076B
:1016A0008B30E8F087E30E945F090FC08BE290E087
:1016B0000E94340780910207813021F48091010754
:1016C0008B3018F40E94D7095AC0809102078130EC
:1016D00009F055C0809101078B3040F750C00E943F
:1016E000D70987E190E00E94340780910507813097
:1016F00041F487E30E947D0980E090E00E94340776
:10170000C9CF80910307813061F090910407913037
:1017100041F485E50E94B90983E090E00E94340716
:1017200028C090910407913051F0813041F485E553
:101730000E949B0983E090E00E9434071AC0813028
:1017400051F0913041F085E50E94B90983E090E0C5
:101750000E9434070EC087E30E947D0980E090E07C
:101760000E94340785E50E94B90983E090E00E9459
:1017700034070E94D70980E090E00E9434078BE292
:1017800090E00E9434078BE290E00E94340782CF01
:1017900081E097E00E94F2090E94FB0A80E090E05D
:1017A0000E943407F5CF0E94F70C86E09DE00E946E
:1017B000290D809301070E947F0A84E190E00E9436
:1017C0003407F1CF41E065E083E00E9449000E94C8
:1017D000380C08951F920F920FB60F9211242F9379
:1017E0003F934F935F936F937F938F939F93AF93A9
:1017F000BF93EF93FF93E091FB06F091FC060995F0
:10180000FF91EF91BF91AF919F918F917F916F91D8
:101810005F914F913F912F910F900FBE0F901F90AE
:1018200018951F920F920FB60F9211242F933F938A
:101830004F935F936F937F938F939F93AF93BF93D8
:10184000EF93FF93E091F906F091FA060995FF9165
:10185000EF91BF91AF919F918F917F916F915F9128
:101860004F913F912F910F900FBE0F901F901895A1
:101870008FB590B78E7F90BF8FBD8FB590B78260C8
:1018800090BF8FBD8EB59FB588609FBD8EBD8EB554
:101890009FB580619FBD8EBD8FB590B7806890BFAA
:1018A0008FBD8FB590B78F7B90BF8FBD8FB590B731
:1018B000806290BF8FBD8FB590B78F7E90BF8FBD78
:1018C0008EB59FB58E7F9FBD8EBD8EB59FB5826054
:1018D0009FBD8EBD8EB59FB58B7F9FBD8EBD80E4B5
:1018E0009CE997BD86BD8FEF90E099BD88BD0895B6
:1018F00095B5987F95BD95B5936095BD95B5986064
:1019000095BD95B5906495BD95B5906295BD95B51D
:101910009F7E95BD682F70E080E090E00E946A0D88
:1019200023E333E343E250E40E94CE0D0E94390DDD
:1019300063BD08951F920F920FB60F9211242F933B
:101940003F934F935F936F937F938F939F93AF9347
:10195000BF93EF93FF93E091FF06F0910007099585
:10196000FF91EF91BF91AF919F918F917F916F9177
:101970005F914F913F912F910F900FBE0F901F904D
:1019800018951F920F920FB60F9211242F933F9329
:101990004F935F936F937F938F939F93AF93BF9377
:1019A000EF93FF93E091FD06F091FE060995FF91FC
:1019B000EF91BF91AF919F918F917F916F915F91C7
:1019C0004F913F912F910F900FBE0F901F90189540
:1019D00086E880BD87E689B98AB188608AB98AB10C
:1019E00080618AB908958CB95D9BFECF089541E06E
:1019F00064E082E00E94B90085E38A95F1F7000077
:101A000040E064E082E00E94B9000895CF9312BEE6
:101A100083E083BF65E082E00E9429018823D1F33F
:101A2000C0E007C008B600FE04C081E088BFCF5FF9
:101A300012BE65E082E00E942901813099F38C2F6B
:101A400090E0982F882722B713BE820F911DCF9167
:101A50000895FC0109959C01A8E2B7E80E94850E53
:101A600020E231EA47E050E00E94630E8FEE820FE1
:101A700008950E94AD0D88F09F5798F0B92F9927CF
:101A8000B751B0F0E1F0660F771F881F991F1AF069
:101A9000BA95C9F714C0B13091F00E94C70DB1E0FA
:101AA00008950C94C70D672F782F8827B85F39F0F9
:101AB000B93FCCF3869577956795B395D9F73EF402
:101AC00090958095709561957F4F8F4F9F4F0895AA
:101AD000E89409C097FB3EF49095809570956195C8
:101AE0007F4F8F4F9F4F9923A9F0F92F96E9BB277E
:101AF0009395F695879577956795B795F111F8CFFA
:101B0000FAF4BB0F11F460FF1BC06F5F7F4F8F4F64
:101B10009F4F16C0882311F096E911C0772321F05A
:101B20009EE8872F762F05C0662371F096E8862FF2
:101B300070E060E02AF09A95660F771F881FDAF749
:101B4000880F9695879597F9089557FD9058440FFB
:101B5000551F59F05F3F71F04795880F97FB991F0C
:101B600061F09F3F79F087950895121613061406C9
:101B7000551FF2CF4695F1DF08C016161706180656
:101B8000991FF1CF86957105610508940895E89431
:101B9000BB2766277727CB0197F908950E94E10DAF
:101BA0000C94520E0E94440E38F00E944B0E20F00E
:101BB000952311F00C943B0E0C94410E11240C94BF
:101BC000C80D0E94A50D70F3959FC1F3950F50E0CD
:101BD000551F629FF001729FBB27F00DB11D639FDF
:101BE000AA27F00DB11DAA1F649F6627B00DA11D85
:101BF000661F829F2227B00DA11D621F739FB00D2B
:101C0000A11D621F839FA00D611D221F749F33279A
:101C1000A00D611D231F849F600D211D822F762F33
:101C20006A2F11249F5750409AF0F1F088234AF010
:101C3000EE0FFF1FBB1F661F771F881F915050407C
:101C4000A9F79E3F510580F00C943B0E0C94C80DF3
:101C50005F3FE4F3983ED4F3869577956795B79503
:101C6000F795E7959F5FC1F7FE2B880F911D96951D
:101C7000879597F9089597F99F6780E870E060E08D
:101C800008959FEF80EC089500240A941616170615
:101C900018060906089500240A941216130614065D
:101CA00005060895092E0394000C11F4882352F0C0
:101CB000BB0F40F4BF2B11F460FF04C06F5F7F4F78
:101CC0008F4F9F4F0895A1E21A2EAA1BBB1BFD0147
:101CD0000DC0AA1FBB1FEE1FFF1FA217B307E4070B
:101CE000F50720F0A21BB30BE40BF50B661F771F63
:101CF000881F991F1A9469F7609570958095909543
:101D00009B01AC01BD01CF010895A29FB001B39F1B
:101D1000C001A39F700D811D1124911DB29F700DF4
:0C1D2000811D1124911D0895F894FFCF3F
:101D2C00DB0549444C4500556C74726153004D6F92
:101D3C0076656D00446973706C6100446973743A24
:101D4C00004469723A0046574400424357005257C8
:101D5C00004C460053746F7000554E4B004F424A76
:081D6C0000420052004C00008F
:00000001FF
