:100000000C942A000C9457010C947E010C94A501C9
:100010000C94880D0C94610D0C9447000C94790499
:100020000C9447000C9447000C94D80C0C94B10C21
:100030000C9447000C9447000C9447000C94470024
:100040000C9447000C9447000C9447000C94470014
:100050000C94470011241FBECFE5D8E0DEBFCDBF12
:1000600010E0A0E6B0E0EAEBFEE102C005900D92E0
:10007000AA3BB107D9F725E0AAEBB0E001C01D9279
:10008000AC31B207E1F70E94AC090C945B0F0C9401
:1000900000004130A1F5813089F028F08230C9F0AC
:1000A000833011F108952AB381E090E002C0880FF7
:1000B000991F6A95E2F7822B8ABB089527B381E0E6
:1000C00090E002C0880F991F6A95E2F7822B87BBE8
:1000D000089524B381E090E002C0880F991F6A95CB
:1000E000E2F7822B84BB089521B381E090E002C047
:1000F000880F991F6A95E2F7822B81BB0895411101
:1001000037C0813091F028F08230D9F0833029F166
:1001100008952AB381E090E002C0880F991F6A9584
:10012000E2F7809582238ABB089527B381E090E0AF
:1001300002C0880F991F6A95E2F78095822387BBDA
:10014000089524B381E090E002C0880F991F6A955A
:10015000E2F78095822384BB089521B381E090E08B
:1001600002C0880F991F6A95E2F78095822381BBB0
:1001700008954130A1F5813089F028F08230C9F02E
:10018000833011F108952BB381E090E002C0880F15
:10019000991F6A95E2F7822B8BBB089528B381E003
:1001A00090E002C0880F991F6A95E2F7822B88BB06
:1001B000089525B381E090E002C0880F991F6A95E9
:1001C000E2F7822B85BB089522B381E090E002C064
:1001D000880F991F6A95E2F7822B82BB089541111F
:1001E00037C0813091F028F08230D9F0833029F186
:1001F00008952BB381E090E002C0880F991F6A95A3
:10020000E2F7809582238BBB089528B381E090E0CC
:1002100002C0880F991F6A95E2F78095822388BBF8
:10022000089525B381E090E002C0880F991F6A9578
:10023000E2F78095822385BB089522B381E090E0A8
:1002400002C0880F991F6A95E2F78095822382BBCE
:100250000895813079F028F08230A9F08330E1F000
:1002600024C089B390E002C0959587956A95E2F71E
:100270008170089586B390E002C0959587956A9540
:10028000E2F78170089583B390E002C09595879559
:100290006A95E2F78170089580B390E002C0959569
:1002A00087956A95E2F78170089580E008951F921E
:1002B0000F920FB60F9211242F933F934F935F939A
:1002C0006F937F938F939F93AF93BF93EF93FF931E
:1002D000E091BE00F091BF000995FF91EF91BF91B1
:1002E000AF919F918F917F916F915F914F913F91CE
:1002F0002F910F900FBE0F901F9018951F920F9285
:100300000FB60F9211242F933F934F935F936F93E8
:100310007F938F939F93AF93BF93EF93FF93E0915E
:10032000BC00F091BD000995FF91EF91BF91AF9195
:100330009F918F917F916F915F914F913F912F91FD
:100340000F900FBE0F901F9018951F920F920FB62F
:100350000F9211242F933F934F935F936F937F934B
:100360008F939F93AF93BF93EF93FF93E091BA0066
:10037000F091BB000995FF91EF91BF91AF919F91D3
:100380008F917F916F915F914F913F912F910F903E
:100390000FBE0F901F901895E5ECF0E08AEC90E00E
:1003A0009183808313821282E1ECF0E087EE93E088
:1003B0009383828311821082A9ECB0E014969C93FF
:1003C0008E9313971296FC93EE93119708950F93C3
:1003D0001F93CF93DF93EC010E94CD068091C00064
:1003E000811105C00E94CC0181E08093C00020975C
:1003F00009F02496CE010197863E934008F056C03E
:10040000E091C500F091C600A5ECB0E002C0DF01AC
:10041000FC01828193818C179D0720F4808191815A
:100420000097A9F780E0E13CF80709F442C00D917C
:100430001C9111970C5F1F4F808191818D939C932C
:10044000828193818C1B9D0B8930910510F1AF0146
:100450004C0F5D1FDA0113969C938E931297D383F2
:10046000C28312962D913C91139765EC70E001C008
:10047000BD01EB01A881B98112968D919C911397D2
:1004800082179307A8F3EA01B983A883DB014D9390
:100490005C93228133818091600090916100821B86
:1004A000930B909361008093600005C000E010E022
:1004B00002C000E010E00E948D07C801DF91CF91DB
:1004C0001F910F9108950F931F93CF93DF93009780
:1004D00041F1EC018C01045011090E94CD06F80194
:1004E00042815381A5ECB0E001C0DF01ED91FC91A8
:1004F00011972281338124173507B8F32497F983A4
:10050000E8830D931C938A819B8120916000309138
:100510006100820F931F90936100809360000E949E
:100520008D07DF91CF911F910F910895FC010396E4
:10053000928381832FEF3FEF3483238396838583D8
:100540009087878310820895FC0111861086089594
:10055000CF93DF939C01FB01DC011196CD91DC91DF
:100560001297D383C2838C819D81958384838C81F0
:100570009D81DC0113967C936E9312977D836C832F
:1005800031872087F90180818F5F8083DF91CF9150
:100590000895CF93DF93EB01488159814F3F2FEFAF
:1005A000520721F4FC01A781B0850DC0DC01139630
:1005B00001C0DF011296ED91FC91139720813181EA
:1005C00042175307B0F71296ED91FC911397FB83F6
:1005D000EA83D583C483BD83AC831396DC93CE9327
:1005E000129799878887FC0120812F5F2083DF91F4
:1005F000CF910895CF93DF93FC01A085B185C2818F
:10060000D381848195819D838C83C481D5818281AE
:1006100093819B838A8311968D919C911297E81701
:10062000F90731F48481958112969C938E931197EA
:10063000118610868C9181508C93DF91CF91089513
:100640001BBC89EF8ABD8BE08EBD89B7806189BFF5
:10065000089531E1FC013083319722E22083319704
:10066000A3E3A08331976083319770833197108221
:10067000319760E8608331971082319762E0608340
:10068000319763E06083319764E06083319765E080
:100690006083319766E06083319767E060833197CC
:1006A00068E06083319769E06083319760E160833F
:1006B00031973083319732E13083319733E13083A2
:1006C000319734E13083319735E13083319736E12A
:1006D0003083319737E13083319738E13083319778
:1006E00039E13083319730E23083319731E2308322
:1006F00031972083319723E22083319740833197CC
:100700005083319726E22083319727E22083319767
:1007100028E22083319729E22083319720E3208348
:10072000319721E32083869708950E942003A091AA
:100730000C05B0910D05CD91CDBFDD91DEBFFF91D0
:10074000EF91DF91CF91BF91AF919F918F917F9169
:100750006F915F914F913F912F911F910F91FF905A
:10076000EF90DF90CF90BF90AF909F908F907F9051
:100770006F905F904F903F902F901F900F900FBE03
:100780000F90089581E008950F920FB6F8940F929C
:100790001F9211242F923F924F925F926F927F92FD
:1007A0008F929F92AF92BF92CF92DF92EF92FF9281
:1007B0000F931F932F933F934F935F936F937F9369
:1007C0008F939F93AF93BF93CF93DF93EF93FF9359
:1007D000A0910C05B0910D050DB60D920EB60D92BF
:1007E0000E944608A0910C05B0910D05CD91CDBF9A
:1007F000DD91DEBFFF91EF91DF91CF91BF91AF917E
:100800009F918F917F916F915F914F913F912F9128
:100810001F910F91FF90EF90DF90CF90BF90AF901E
:100820009F908F907F906F905F904F903F902F9010
:100830001F900F900FBE0F9008950F920FB6F8946F
:100840000F921F9211242F923F924F925F926F92BC
:100850007F928F929F92AF92BF92CF92DF92EF9250
:10086000FF920F931F932F933F934F935F936F9339
:100870007F938F939F93AF93BF93CF93DF93EF9328
:10088000FF93A0910C05B0910D050DB60D920EB61B
:100890000D920E94D30681110E944608A0910C057A
:1008A000B0910D05CD91CDBFDD91DEBFFF91EF91F0
:1008B000DF91CF91BF91AF919F918F917F916F9178
:1008C0005F914F913F912F911F910F91FF90EF906A
:1008D000DF90CF90BF90AF909F908F907F906F9060
:1008E0005F904F903F902F901F900F900FBE0F90F2
:1008F00008950E941D041895E091DD04F091DE0436
:100900008081811107C08FEF9FEF9093B504809392
:10091000B4040895E091DD04F091DE040580F681D1
:10092000E02D0680F781E02D828193819093B504BC
:100930008093B4040895CF93DF93EC018F89988D51
:100940000E946302CE010E946302DF91CF9108955D
:100950006F927F928F929F92AF92BF92CF92DF92CF
:10096000EF920F931F93CF93DF93CDB7DEB74C0178
:10097000F5018789908D215031093C01620E731E6B
:1009800020E00FC0822F90E0FB01E80FF91F3081BB
:10099000D501A80FB91F59963C938081882319F07F
:1009A0002F5F283078F3F50110A2F2E0FE1518F45D
:1009B0006894EE24E1F8F501E68AE1A212A2C501ED
:1009C00002960E94A402C5010C960E94A402F501A1
:1009D000B186A08683E090E08E199109958784877F
:1009E000B38AA28A13A214A215A216A217A2A80162
:1009F000B401C3010E942903F50191838083C114CE
:100A0000D10419F0F601B182A082DF91CF911F913C
:100A10000F91EF90DF90CF90BF90AF909F908F900D
:100A20007F906F900895CF93C0E010C08C2F90E01E
:100A30009C01220F331F220F331F220F331F820FFF
:100A4000931F8F509B4F0E949602CF5FC33070F36D
:100A500088EE94E00E9496028FED94E00E94960248
:100A600082ED94E00E94960289EC94E00E94960246
:100A70008FEB94E00E94960288EE94E09093DE045F
:100A80008093DD048FED94E09093DC048093DB048D
:100A9000CF910895CF93DF93EC010FB6F8940F92A6
:100AA0008091BE048F5F8093BE0480910C0590916D
:100AB0000D05892B59F4D0930D05C0930C05809139
:100AC000BE04813099F40E94130510C08091BA04CD
:100AD00081110CC0E0910C05F0910D0596898E896D
:100AE000891720F0D0930D05C0930C058091B604B2
:100AF0008F5F8093B6048E899091BB04981710F491
:100B00008093BB0490E09C01220F331F220F331F00
:100B1000220F331F820F931FBE016E5F7F4F8F50D6
:100B20009B4F0E94A8020F900FBE8091BA048823A9
:100B300051F0E0910C05F0910D0596898E8998177A
:100B400010F40E94C403DF91CF910895FF920F9398
:100B50001F93CF93DF93EC01F62E0091BC0410910C
:100B6000BD0480910C0590910D0502960E94FA0239
:100B7000CF3F8FEFD80769F4FF2059F060910C0543
:100B800070910D056E5F7F4F8FEB94E00E94A8027D
:100B90002FC0C00FD11FE0910C05F0910D05D3833C
:100BA000C283C017D10768F460910C0570910D05E0
:100BB0008091DB049091DC046E5F7F4F0E94C9023C
:100BC00017C060910C0570910D058091DD04909126
:100BD000DE046E5F7F4F0E94C9028091B404909141
:100BE000B504C817D90720F4D093B504C093B40452
:100BF000DF91CF911F910F91FF9008952F923F9217
:100C00004F925F926F927F928F929F92AF92BF921C
:100C1000CF92DF92EF92FF920F931F93CF93DF93C8
:100C20003C011B015A012901CA010E94E7016C0124
:100C3000892B71F088E290E00E94E701EC01892B9A
:100C400019F0D88ECF8A06C0C6010E94630202C086
:100C5000C0E0D0E0209791F0950140E050E0812C79
:100C6000912C5E016701E02E8201B101C3010E9457
:100C7000A804CE010E944A0581E001C08FEFDF91F8
:100C8000CF911F910F91FF90EF90DF90CF90BF9089
:100C9000AF909F908F907F906F905F904F903F901C
:100CA0002F9008950F931F93CF93DF93EC010FB60E
:100CB000F8940F92892B21F4C0910C05D0910D0569
:100CC0008E010E5F1F4FC8010E94FA028C899D8918
:100CD000892B21F0CE010C960E94FA028091B60475
:100CE0008F5F8093B60480910C0590910D05C81715
:100CF000D90759F4B80189EC94E00E94A8028091C8
:100D0000C8048F5F8093C8040AC08091BE048150DC
:100D10008093BE04CE010E949B040E947C040F902D
:100D20000FBE8091BA04882349F080910C05909100
:100D30000D05C817D90711F40E94C403DF91CF91A4
:100D40001F910F910895EF92FF920F930F2EF2EBE8
:100D5000EF2EF4E0FF2EF02D00E020E030E040E543
:100D600050E062E670E083E498E00E94FE05813086
:100D700081F4F8948FEF9FEF9093B5048093B404BF
:100D800081E08093BA041092BD041092BC040E94CA
:100D900095030F91FF90EF9008958091B1048F5FBC
:100DA0008093B1040895DF92EF92FF920F931F9307
:100DB000CF93DF938091B104811197C0E090BC0480
:100DC000F090BD048FEFE81AF80AF092BD04E092AB
:100DD000BC04E114F104B9F48091DD049091DE04C7
:100DE0002091DB043091DC043093DE042093DD0499
:100DF0009093DC048093DB048091B7048F5F809331
:100E0000B7040E947C048091B4049091B504E81664
:100E1000F90628F4D12C53C0DD24D39401C0D12C81
:100E2000E091DD04F091DE048081811107C08FEF35
:100E30009FEF9093B5048093B40441C0E091DD042A
:100E4000F091DE040580F681E02DC681D7818A818C
:100E50009B81E816F90628F49093B5048093B404B6
:100E60002EC08E010E5F1F4FC8010E94FA028C89AE
:100E70009D89892B21F0CE010C960E94FA028E8961
:100E80009091BB04981710F48093BB0490E09C01F0
:100E9000220F331F220F331F220F331F820F931F86
:100EA000B8018F509B4F0E94A8029E89E0910C05CB
:100EB000F0910D058689981708F0AECFB1CFE0917B
:100EC0000C05F0910D05868990E0FC01EE0FFF1FE7
:100ED000EE0FFF1FEE0FFF1F8E0F9F1FFC01EF5045
:100EE000FB4F8081823040F409C08091B9048F5F4C
:100EF0008093B904D12C02C0DD24D3948091B8042E
:100F0000882311F0DD24D3948D2DDF91CF911F9193
:100F10000F91FF90EF90DF9008950F931F93CF9361
:100F2000DF930FB6F8940F928091B10481508093B3
:100F3000B1048091B104811158C08091BE04811127
:100F400033C056C0E091D704F091D804C681D78150
:100F5000CE010C960E94FA028E010E5F1F4FC8014F
:100F60000E94FA028E899091BB04981710F4809326
:100F7000BB0490E09C01220F331F220F331F220F6E
:100F8000331F820F931FB8018F509B4F0E94A802FE
:100F90009E89E0910C05F0910D058689981730F037
:100FA00081E08093B80402C0C0E0D0E08091D20418
:100FB0008111C8CFCD2B11F00E947C04C091B904DF
:100FC000CC2359F00E94D306882319F081E0809346
:100FD000B804C150B9F71092B9048091B8048823BD
:100FE00031F00E94C40381E003C080E001C080E0D2
:100FF0000F900FBEDF91CF911F910F910895CF9366
:10100000DF93EC01892B49F00E94CD0660E0CE0110
:101010000E94A6050E948D0701C080E0811102C0D8
:101020000E94C403DF91CF910895CF93DF9324C032
:101030000E94CD06C091C9040E948D07CC23E1F027
:101040000FB6F8940F92E091CE04F091CF04C681D0
:10105000D781CE0102960E94FA028091BE0481508F
:101060008093BE048091C80481508093C8040F907F
:101070000FBECE010E949B048091C8048111D8CF7D
:10108000DF91CF9108950E941508FDCF8091B104A2
:10109000882321F081E08093B80408951092B80469
:1010A0002091BB0401C02150822F90E0FC01EE0F83
:1010B000FF1FEE0FFF1FEE0FFF1FE80FF91FEF508E
:1010C000FB4F3081332379F3AC01440F551F440F9C
:1010D000551F440F551F480F591FDF010180F28132
:1010E000E02D0280F381E02D1296FC93EE93119790
:1010F0004C505B4FE417F50729F442815381FD0101
:1011000052834183FC01EE0FFF1FEE0FFF1FEE0F16
:10111000FF1F8E0F9F1FFC01EF50FB4F0180F281DC
:10112000E02D8681978190930D0580930C05209387
:10113000BB0408950F931F93CF93DF9300D000D08B
:10114000CDB7DEB7082F84E0898385E08A8386E007
:101150008B8387E08C8310E014C0402F50E0012E79
:1011600002C0559547950A94E2F74170E1E0F0E03E
:10117000EC0FFD1FE10FF11D608180E00E94B900BE
:101180001F5F143050F30F900F900F900F90DF916E
:10119000CF911F910F91089541E063E081E00E949B
:1011A000B9008FE39FE10197F1F700C0000040E034
:1011B00063E081E00E94B9000895CF93C82F40E01A
:1011C00061E081E00E94B90040E062E081E00E94BD
:1011D000B9008C2F82958F700E949A080E94CC08CB
:1011E0008C2F0E949A080E94CC08CF910895CF932B
:1011F000C82F41E061E081E00E94B90040E062E078
:1012000081E00E94B9008C2F82958F700E949A080D
:101210000E94CC088C2F0E949A080E94CC08CF9183
:1012200008952FEF83EF91E0215080409040E1F747
:1012300000C0000082E00E949A080E94CC0882E070
:101240000E949A080E94CC0888E00E949A080E9496
:10125000CC088CE00E94DD0881E00E94DD08089542
:10126000CF93DF93EC0103C00E94F7082196888199
:101270008111FACFDF91CF9108951F93CF93DF9320
:10128000CDB7DEB72E970FB6F894DEBF0FBECDBF39
:10129000AC01892BD1F580E390E09A83898311E03A
:1012A00047C09A01ADECBCEC0E944C0F9695879517
:1012B00096958795969587959C01220F331F880FE9
:1012C000991F880F991F880F991F820F931F9A01EA
:1012D000281B390BC901E12FF0E09927C096EE0FCA
:1012E000FF1F21E030E02C0F3D1FE20FF31F918321
:1012F00080839A010E944C0FAC01569547955695F4
:101300004795569547951F5F01C010E0411551055F
:1013100041F60EC01150E12FF0E0EE0FFF1F81E00B
:1013200090E08C0F9D1FE80FF91F80810E94F70845
:101330001111F0CF2E960FB6F894DEBF0FBECDBFC1
:10134000DF91CF911F91089590E4699F800D112442
:1013500080680E94DD080895E12CF12C03E020E074
:1013600030E040E550E067E670E087E19CE00E94F5
:10137000FE0502E020E030E040E550E062E770E08A
:1013800086E29CE00E94FE0520E030E040E550E06F
:101390006BE770E08AE89CE00E94FE0501E020E037
:1013A00030E040E550E063E870E082EA9CE00E94B3
:1013B000FE0520E030E040E550E066E870E083E9BB
:1013C0009CE00E94FE050E94A306FFCF41E064E07E
:1013D00080E00E94490041E065E080E00E94490011
:1013E00041E066E080E00E94490041E067E080E083
:1013F0000E94490041E061E081E00E94490041E033
:1014000062E081E00E94490041E063E081E00E94E7
:1014100049000E94A90C41E064E082E00E9449007A
:1014200040E065E082E00E9449000E9411090895B1
:1014300041E066E082E00E94490041E067E082E02E
:101440000E94490041E062E083E00E94490041E0DF
:1014500063E083E00E94490041E067E083E00E948E
:1014600049000895CF93C82F41E066E082E00E94D2
:10147000B90040E067E082E00E94B90041E062E02C
:1014800083E00E94B90040E063E083E00E94B9007D
:101490008C2F0E943F0D81E080931B05CF91089512
:1014A000CF93C82F40E066E082E00E94B90041E09F
:1014B00067E082E00E94B90040E062E083E00E94C1
:1014C000B90041E063E083E00E94B9008C2F0E94E4
:1014D0003F0D82E080931B05CF910895CF93C82FD5
:1014E00040E066E082E00E94B90041E067E082E00F
:1014F0000E94B90041E062E083E00E94B90040E050
:1015000063E083E00E94B9008C2F0E943F0D83E0CE
:1015100080931B05CF910895CF93C82F41E066E0DB
:1015200082E00E94B90040E067E082E00E94B900DA
:1015300040E062E083E00E94B90041E063E083E0C4
:101540000E94B9008C2F0E943F0D84E080931B0500
:10155000CF91089540E066E082E00E94B90040E04B
:1015600067E082E00E94B90040E062E083E00E9410
:10157000B90040E063E083E00E94B90085E0809319
:101580001B0580E00E943F0D0895CF93DF93EC018F
:1015900060E080E00E94A4098EE890E00E9430099B
:1015A00060E086E00E94A409888190E00E943D09E5
:1015B00060E089E00E94A40984E990E00E9430097B
:1015C00060E08DE00E94A4098D818330A9F028F4A9
:1015D000813041F0823059F01EC0843091F0853066
:1015E000A9F019C089E990E00E94300918C08DE97E
:1015F00090E00E94300913C081EA90E00E94300917
:101600000EC084EA90E00E94300909C087EA90E0A9
:101610000E94300904C08CEA90E00E94300961E029
:1016200080E00E94A40980EB90E00E94300961E014
:1016300084E00E94A4098981811105C085EA90E0B7
:101640000E94300917C08C81811105C084EB90E0A5
:101650000E9430090FC08B81811105C086EB90E09C
:101660000E94300907C08A81811104C088EB90E094
:101670000E943009DF91CF91089540E063E082E05D
:101680000E94490040E060E082E00E94490040E0A2
:1016900061E082E00E94490040E062E082E00E9456
:1016A00049000895CF93DF9360E082E00E94290112
:1016B000C6E1D5E08C8361E082E00E9429018B8342
:1016C00062E082E00E9429018A8363E082E00E9456
:1016D00029018983DF91CF91089541E063E080E0A3
:1016E0000E94490008950E94AF0D08951F93CF9363
:1016F000DF9300D000D000D0CDB7DEB7AC01892B8E
:1017000091F580E30E94BA0D3FC09A01ADECBCECAC
:101710000E944C0F969587959695879596958795F7
:101720009C01220F331F880F991F880F991F880F64
:10173000991F820F931F9A01281B390BC901E1E001
:10174000F0E0EC0FFD1FE10FF11D805D80839A0139
:101750000E944C0FAC015695479556954795569566
:1017600047951F5F01C010E04115510571F60AC091
:101770001150E1E0F0E0EC0FFD1FE10FF11D808161
:101780000E94BA0D1111F4CF26960FB6F894DEBF61
:101790000FBECDBFDF91CF911F910895CF93DF93FF
:1017A00084E40E94BA0D8AE30E94BA0DC6E1D5E036
:1017B000888190E00E94760B86E40E94BA0D8AE34D
:1017C0000E94BA0D898190E00E94760B82E40E940B
:1017D000BA0D8AE30E94BA0D8C8190E00E94760BCC
:1017E00082E50E94BA0D8AE30E94BA0D8B8190E0D7
:1017F0000E94760B8CE40E94BA0D8AE30E94BA0D17
:101800008A8190E00E94760B84E40E94BA0D89E6FA
:101810000E94BA0D82E70E94BA0D8AE30E94BA0DB7
:101820008D8190E00E94760BDF91CF9108950E9408
:10183000E6090E94180A0E943D0B0E946D0B0E944F
:10184000730B80E090E00E94520608958091170586
:101850008130B9F4809116058B3098F082E30E94B4
:10186000320A04C082E290E00E94FF0780911705CF
:10187000813021F4809116058B30A0F70E94AA0ACE
:1018800044C087E30E94500A89E290E00E94FF076B
:101890000E94AA0A80911805813061F09091190583
:1018A000913041F485E50E946E0A8EE290E00E943C
:1018B000FF0721C090911905913051F0813041F41A
:1018C00085E50E948C0A8EE290E00E94FF0713C01B
:1018D000813041F485E50E948C0A8EE290E00E94FE
:1018E000FF0709C0913039F485E50E946E0A8EE247
:1018F00090E00E94FF0789E290E00E94FF070E94AB
:10190000AA0A82E390E00E94FF0782E290E00E9430
:10191000FF079CCF86E195E00E94C50A82E190E036
:101920000E94FF07F7CF0E94520B0E94BE0D8DEC64
:101930009DE00E94F00D8093160582E290E00E94E7
:10194000FF07F1CF0E94CE0B82E190E00E94FF07DB
:10195000F9CF41E065E083E00E9449000E94FF0C5E
:1019600008951F920F920FB60F9211242F933F9359
:101970004F935F936F937F938F939F93AF93BF9397
:10198000EF93FF93E0911005F09111050995FF91F8
:10199000EF91BF91AF919F918F917F916F915F91E7
:1019A0004F913F912F910F900FBE0F901F90189560
:1019B0001F920F920FB60F9211242F933F934F93C4
:1019C0005F936F937F938F939F93AF93BF93EF93A7
:1019D000FF93E0910E05F0910F050995FF91EF91AE
:1019E000BF91AF919F918F917F916F915F914F9137
:1019F0003F912F910F900FBE0F901F9018958FB5AC
:101A000090B78E7F90BF8FBD8FB590B7826090BF2B
:101A10008FBD8EB59FB588609FBD8EBD8EB59FB5BD
:101A200080619FBD8EBD8FB590B7806890BF8FBD20
:101A30008FB590B78F7B90BF8FBD8FB590B7806209
:101A400090BF8FBD8FB590B78F7E90BF8FBD8EB585
:101A50009FB58E7F9FBD8EBD8EB59FB582609FBDA9
:101A60008EBD8EB59FB58B7F9FBD8EBD80E49CE9FA
:101A700097BD86BD8FEF90E099BD88BD089595B55F
:101A8000987F95BD95B5936095BD95B5986095BDCA
:101A900095B5906495BD95B5906295BD95B59F7EC1
:101AA00095BD682F70E080E090E00E94310E23E346
:101AB00033E343E250E40E94950E0E94000E63BDA2
:101AC00008951F920F920FB60F9211242F933F93F8
:101AD0004F935F936F937F938F939F93AF93BF9336
:101AE000EF93FF93E0911405F09115050995FF918F
:101AF000EF91BF91AF919F918F917F916F915F9186
:101B00004F913F912F910F900FBE0F901F901895FE
:101B10001F920F920FB60F9211242F933F934F9362
:101B20005F936F937F938F939F93AF93BF93EF9345
:101B3000FF93E0911205F09113050995FF91EF9144
:101B4000BF91AF919F918F917F916F915F914F91D5
:101B50003F912F910F900FBE0F901F90189586E820
:101B600080BD87E689B98AB188608AB98AB1806107
:101B70008AB908958CB95D9BFECF089541E064E079
:101B800082E00E94B90085E38A95F1F7000040E009
:101B900064E082E00E94B9000895CF9312BE83E012
:101BA00083BF65E082E00E9429018823D1F3C0E071
:101BB00007C008B600FE04C081E088BFCF5F12BE38
:101BC00065E082E00E942901813099F38C2F90E03A
:101BD000982F882722B713BE820F911DCF910895A9
:101BE000FC0109959C01A8E2B7E80E944C0F20E295
:101BF00031EA47E050E00E942A0F8FEE820F0895ED
:101C00000E94740E88F09F5798F0B92F9927B7510A
:101C1000B0F0E1F0660F771F881F991F1AF0BA9590
:101C2000C9F714C0B13091F00E948E0EB1E0089552
:101C30000C948E0E672F782F8827B85F39F0B93F44
:101C4000CCF3869577956795B395D9F73EF4909543
:101C50008095709561957F4F8F4F9F4F0895E894C1
:101C600009C097FB3EF490958095709561957F4FE4
:101C70008F4F9F4F9923A9F0F92F96E9BB27939592
:101C8000F695879577956795B795F111F8CFFAF4A2
:101C9000BB0F11F460FF1BC06F5F7F4F8F4F9F4FD3
:101CA00016C0882311F096E911C0772321F09EE831
:101CB000872F762F05C0662371F096E8862F70E097
:101CC00060E02AF09A95660F771F881FDAF7880F71
:101CD0009695879597F9089557FD9058440F551F8D
:101CE00059F05F3F71F04795880F97FB991F61F09E
:101CF0009F3F79F087950895121613061406551F15
:101D0000F2CF4695F1DF08C0161617061806991F80
:101D1000F1CF86957105610508940895E894BB2775
:101D200066277727CB0197F908950E94A80E0C9497
:101D3000190F0E940B0F38F00E94120F20F095230C
:101D400011F00C94020F0C94080F11240C948F0EB8
:101D50000E946C0E70F3959FC1F3950F50E0551FD4
:101D6000629FF001729FBB27F00DB11D639FAA27F0
:101D7000F00DB11DAA1F649F6627B00DA11D661F3F
:101D8000829F2227B00DA11D621F739FB00DA11D60
:101D9000621F839FA00D611D221F749F3327A00D1A
:101DA000611D231F849F600D211D822F762F6A2FB6
:101DB00011249F5750409AF0F1F088234AF0EE0F1B
:101DC000FF1FBB1F661F771F881F91505040A9F748
:101DD0009E3F510580F00C94020F0C948F0E5F3FD4
:101DE000E4F3983ED4F3869577956795B795F79584
:101DF000E7959F5FC1F7FE2B880F911D96958795FC
:101E000097F9089597F99F6780E870E060E008957A
:101E10009FEF80EC089500240A9416161706180602
:101E20000906089500240A941216130614060506DE
:101E30000895092E0394000C11F4882352F0BB0F6F
:101E400040F4BF2B11F460FF04C06F5F7F4F8F4FD2
:101E50009F4F0895A1E21A2EAA1BBB1BFD010DC0C6
:101E6000AA1FBB1FEE1FFF1FA217B307E407F5074A
:101E700020F0A21BB30BE40BF50B661F771F881F26
:101E8000991F1A9469F760957095809590959B01BC
:101E9000AC01BD01CF010895A29FB001B39FC00165
:101EA000A39F700D811D1124911DB29F700D811D86
:0A1EB0001124911D0895F894FFCF4E
:101EBA00E70349444C4500496E697469616C697A63
:101ECA0065004D6F76656D656E7400446973706C5C
:101EDA0061790042540053656E736F7273004469EE
:101EEA0073743A004469723A0046574400424357B1
:101EFA00005257004C460053746F7000554E4B0009
:0A1F0A004F424A00420052004C0012
:00000001FF
