S0130000526F7665725F54657374312E73726563D3
S11300000C942A000C9457010C947E010C94A501C5
S11300100C94750C0C944E0C0C9447000C947904BD
S11300200C9447000C9447000C94C50B0C949E0B45
S11300300C9447000C9447000C9447000C94470020
S11300400C9447000C9447000C9447000C94470010
S11300500C94470011241FBECFE5D8E0DEBFCDBF0E
S113006010E0A0E6B0E0ECE8FCE102C005900D92DF
S1130070A83AB107D9F727E0A8EAB0E001C01D9279
S1130080A232B207E1F70E945A090C94440E0C9470
S113009000004130A1F5813089F028F08230C9F0A8
S11300A0833011F108952AB381E090E002C0880FF3
S11300B0991F6A95E2F7822B8ABB089527B381E0E2
S11300C090E002C0880F991F6A95E2F7822B87BBE4
S11300D0089524B381E090E002C0880F991F6A95C7
S11300E0E2F7822B84BB089521B381E090E002C043
S11300F0880F991F6A95E2F7822B81BB08954111FD
S113010037C0813091F028F08230D9F0833029F162
S113011008952AB381E090E002C0880F991F6A9580
S1130120E2F7809582238ABB089527B381E090E0AB
S113013002C0880F991F6A95E2F78095822387BBD6
S1130140089524B381E090E002C0880F991F6A9556
S1130150E2F78095822384BB089521B381E090E087
S113016002C0880F991F6A95E2F78095822381BBAC
S113017008954130A1F5813089F028F08230C9F02A
S1130180833011F108952BB381E090E002C0880F11
S1130190991F6A95E2F7822B8BBB089528B381E0FF
S11301A090E002C0880F991F6A95E2F7822B88BB02
S11301B0089525B381E090E002C0880F991F6A95E5
S11301C0E2F7822B85BB089522B381E090E002C060
S11301D0880F991F6A95E2F7822B82BB089541111B
S11301E037C0813091F028F08230D9F0833029F182
S11301F008952BB381E090E002C0880F991F6A959F
S1130200E2F7809582238BBB089528B381E090E0C8
S113021002C0880F991F6A95E2F78095822388BBF4
S1130220089525B381E090E002C0880F991F6A9574
S1130230E2F78095822385BB089522B381E090E0A4
S113024002C0880F991F6A95E2F78095822382BBCA
S11302500895813079F028F08230A9F08330E1F0FC
S113026024C089B390E002C0959587956A95E2F71A
S11302708170089586B390E002C0959587956A953C
S1130280E2F78170089583B390E002C09595879555
S11302906A95E2F78170089580B390E002C0959565
S11302A087956A95E2F78170089580E008951F921A
S11302B00F920FB60F9211242F933F934F935F9396
S11302C06F937F938F939F93AF93BF93EF93FF931A
S11302D0E091AC00F091AD000995FF91EF91BF91D1
S11302E0AF919F918F917F916F915F914F913F91CA
S11302F02F910F900FBE0F901F9018951F920F9281
S11303000FB60F9211242F933F934F935F936F93E4
S11303107F938F939F93AF93BF93EF93FF93E0915A
S1130320AA00F091AB000995FF91EF91BF91AF91B5
S11303309F918F917F916F915F914F913F912F91F9
S11303400F900FBE0F901F9018951F920F920FB62B
S11303500F9211242F933F934F935F936F937F9347
S11303608F939F93AF93BF93EF93FF93E091A80074
S1130370F091A9000995FF91EF91BF91AF919F91E1
S11303808F917F916F915F914F913F912F910F903A
S11303900FBE0F901F901895E3EBF0E088EB90E010
S11303A09183808313821282EFEAF0E08BED95E073
S11303B09383828311821082A7EBB0E014969C93FE
S11303C08E9313971296FC93EE93119708950F93BF
S11303D01F93CF93DF93EC010E947B068091AE00C4
S11303E0811105C00E94CC0181E08093AE0020976A
S11303F009F02496CE0101978A3D954008F056C035
S1130400E091B300F091B400A3EBB0E002C0DF01CF
S1130410FC01828193818C179D0720F48081918156
S11304200097A9F780E0EF3AF80709F442C00D916C
S11304301C9111970C5F1F4F808191818D939C9328
S1130440828193818C1B9D0B8930910510F1AF0142
S11304504C0F5D1FDA0113969C938E931297D383EE
S1130460C28312962D913C91139763EB70E001C007
S1130470BD01EB01A881B98112968D919C911397CE
S113048082179307A8F3EA01B983A883DB014D938C
S11304905C93228133818091600090916100821B82
S11304A0930B909361008093600005C000E010E01E
S11304B002C000E010E00E943B07C801DF91CF9129
S11304C01F910F9108950F931F93CF93DF9300977C
S11304D041F1EC018C01045011090E947B06F801E2
S11304E042815381A3EBB0E001C0DF01ED91FC91A7
S11304F011972281338124173507B8F32497F983A0
S1130500E8830D931C938A819B8120916000309134
S11305106100820F931F90936100809360000E949A
S11305203B07DF91CF911F910F910895FC01039632
S1130530928381832FEF3FEF3483238396838583D4
S11305409087878310820895FC0111861086089590
S1130550CF93DF939C01FB01DC011196CD91DC91DB
S11305601297D383C2838C819D81958384838C81EC
S11305709D81DC0113967C936E9312977D836C832B
S113058031872087F90180818F5F8083DF91CF914C
S11305900895CF93DF93EB01488159814F3F2FEFAB
S11305A0520721F4FC01A781B0850DC0DC0113962C
S11305B001C0DF011296ED91FC91139720813181E6
S11305C042175307B0F71296ED91FC911397FB83F2
S11305D0EA83D583C483BD83AC831396DC93CE9323
S11305E0129799878887FC0120812F5F2083DF91F0
S11305F0CF910895CF93DF93FC01A085B185C2818B
S1130600D381848195819D838C83C481D5818281AA
S113061093819B838A8311968D919C911297E817FD
S1130620F90731F48481958112969C938E931197E6
S1130630118610868C9181508C93DF91CF9108950F
S11306401BBC89EF8ABD8BE08EBD89B7806189BFF1
S1130650089531E1FC013083319722E22083319700
S1130660A3E3A0833197608331977083319710821D
S1130670319760E8608331971082319762E060833C
S1130680319763E06083319764E06083319765E07C
S11306906083319766E06083319767E060833197C8
S11306A068E06083319769E06083319760E160833B
S11306B031973083319732E13083319733E130839E
S11306C0319734E13083319735E13083319736E126
S11306D03083319737E13083319738E13083319774
S11306E039E13083319730E23083319731E230831E
S11306F031972083319723E22083319740833197C8
S11307005083319726E22083319727E22083319763
S113071028E22083319729E22083319720E3208344
S1130720319721E32083869708950E942003A091A6
S11307301207B0911307CD91CDBFDD91DEBFFF91BC
S1130740EF91DF91CF91BF91AF919F918F917F9165
S11307506F915F914F913F912F911F910F91FF9056
S1130760EF90DF90CF90BF90AF909F908F907F904D
S11307706F905F904F903F902F901F900F900FBEFF
S11307800F90089581E008950F920FB6F8940F9298
S11307901F9211242F923F924F925F926F927F92F9
S11307A08F929F92AF92BF92CF92DF92EF92FF927D
S11307B00F931F932F933F934F935F936F937F9365
S11307C08F939F93AF93BF93CF93DF93EF93FF9355
S11307D0A0911207B09113070DB60D920EB60D92AB
S11307E00E94F407A0911207B0911307CD91CDBFD9
S11307F0DD91DEBFFF91EF91DF91CF91BF91AF917A
S11308009F918F917F916F915F914F913F912F9124
S11308101F910F91FF90EF90DF90CF90BF90AF901A
S11308209F908F907F906F905F904F903F902F900C
S11308301F900F900FBE0F9008950F920FB6F8946B
S11308400F921F9211242F923F924F925F926F92B8
S11308507F928F929F92AF92BF92CF92DF92EF924C
S1130860FF920F931F932F933F934F935F936F9335
S11308707F938F939F93AF93BF93CF93DF93EF9324
S1130880FF93A0911207B09113070DB60D920EB607
S11308900D920E94810681110E94F407A091120713
S11308A0B0911307CD91CDBFDD91DEBFFF91EF91E4
S11308B0DF91CF91BF91AF919F918F917F916F9174
S11308C05F914F913F912F911F910F91FF90EF9066
S11308D0DF90CF90BF90AF909F908F907F906F905C
S11308E05F904F903F902F901F900F900FBE0F90EE
S11308F008950E941D041895E091BF06F091C0066A
S11309008081811107C08FEF9FEF909397068093AA
S113091096060895E091BF06F091C0060580F68121
S1130920E02D0680F781E02D8281938190939706D4
S1130930809396060895CF93DF93EC018F89988D69
S11309400E946302CE010E946302DF91CF91089559
S11309506F927F928F929F92AF92BF92CF92DF92CB
S1130960EF920F931F93CF93DF93CDB7DEB74C0174
S1130970F5018789908D215031093C01620E731E67
S113098020E00FC0822F90E0FB01E80FF91F3081B7
S1130990D501A80FB91F59963C938081882319F07B
S11309A02F5F203178F3F50110A6F6E0FE1520F450
S11309B00F2EF6E0EF2EF02DF501E68AC501029622
S11309C00E94A402C5010C960E94A402F501B186FE
S11309D0A08687E090E08E19910995878487B38A71
S11309E0A28A11A612A613A614A615A6A801B401DC
S11309F0C3010E942903F50191838083C114D104AA
S1130A0019F0F601B182A082DF91CF911F910F916D
S1130A10EF90DF90CF90BF90AF909F908F907F909A
S1130A206F900895CF93C0E010C08C2F90E09C018C
S1130A30220F331F220F331F220F331F820F931FE6
S1130A408D52994F0E949602CF5FC73070F38AECA3
S1130A5096E00E94960281EC96E00E94960284EB56
S1130A6096E00E9496028BEA96E00E94960281EA42
S1130A7096E00E9496028AEC96E09093C0068093DA
S1130A80BF0681EC96E09093BE068093BD06CF919D
S1130A900895CF93DF93EC010FB6F8940F928091F1
S1130AA0A0068F5F8093A006809112079091130790
S1130AB0892B59F4D0931307C09312078091A00691
S1130AC0813099F40E94120510C080919C06811116
S1130AD00CC0E0911207F091130796898E8989174B
S1130AE020F0D0931307C0931207809198068F5F6C
S1130AF0809398068E8990919D06981710F48093A0
S1130B009D0690E09C01220F331F220F331F220FFA
S1130B10331F820F931FBE016E5F7F4F8D52994F1B
S1130B200E94A8020F900FBE80919C06882351F06A
S1130B30E0911207F091130796898E89981710F4A3
S1130B400E94C403DF91CF910895FF920F931F93E6
S1130B50CF93DF93EC01F62E00919E0610919F0631
S1130B60809112079091130702960E94FA02CF3FD8
S1130B708FEFD80769F4FF2059F060911207709144
S1130B8013076E5F7F4F81EA96E00E94A8022FC090
S1130B90C00FD11FE0911207F0911307D383C283D2
S1130BA0C017D10768F46091120770911307809100
S1130BB0BD069091BE066E5F7F4F0E94C90217C0AA
S1130BC060911207709113078091BF069091C0063F
S1130BD06E5F7F4F0E94C90280919606909197069E
S1130BE0C817D90720F4D0939706C0939606DF91CF
S1130BF0CF911F910F91FF9008952F923F924F92A2
S1130C005F926F927F928F929F92AF92BF92CF9298
S1130C10DF92EF92FF920F931F93CF93DF933C01E8
S1130C201B015A012901CA010E94E7016C01892BA9
S1130C3071F08EE290E00E94E701EC01892B19F03B
S1130C40D88ECF8A06C0C6010E94630202C0C0E0EB
S1130C50D0E0209791F0950140E050E0812C912C58
S1130C605E016701E02E8201B101C3010E94A80464
S1130C70CE010E94490581E001C08FEFDF91CF9141
S1130C801F910F91FF90EF90DF90CF90BF90AF90A6
S1130C909F908F907F906F905F904F903F902F9098
S1130CA00895EF92FF920F930F2EF4E9EF2EF6E0E2
S1130CB0FF2EF02D00E020E030E04AEF50E062E645
S1130CC070E081EF97E00E94FD05813081F4F89493
S1130CD08FEF9FEF909397068093960681E0809321
S1130CE09C0610929F0610929E060E9495030F91F7
S1130CF0FF90EF900895809193068F5F8093930601
S1130D000895DF92EF92FF920F931F93CF93DF9397
S1130D1080919306811197C0E0909E06F0909F0603
S1130D208FEFE81AF80AF0929F06E0929E06E1140B
S1130D30F104B9F48091BF069091C0062091BD06DC
S1130D403091BE063093C0062093BF069093BE0632
S1130D508093BD06809199068F5F809399060E94C7
S1130D607C048091960690919706E816F90628F47B
S1130D70D12C53C0DD24D39401C0D12CE091BF0603
S1130D80F091C0068081811107C08FEF9FEF90938F
S1130D9097068093960641C0E091BF06F091C00685
S1130DA00580F681E02DC681D7818A819B81E81672
S1130DB0F90628F490939706809396062EC08E0128
S1130DC00E5F1F4FC8010E94FA028C899D89892BEE
S1130DD021F0CE010C960E94FA028E8990919D0614
S1130DE0981710F480939D0690E09C01220F331F06
S1130DF0220F331F220F331F820F931FB8018D520E
S1130E00994F0E94A8029E89E0911207F09113075E
S1130E108689981708F0AECFB1CFE0911207F09110
S1130E201307868990E0FC01EE0FFF1FEE0FFF1FF2
S1130E30EE0FFF1F8E0F9F1FFC01ED52F94F8081B3
S1130E40823040F409C080919B068F5F80939B069B
S1130E50D12C02C0DD24D39480919A06882311F00A
S1130E60DD24D3948D2DDF91CF911F910F91FF90AD
S1130E70EF90DF9008950F931F93CF93DF930FB6F6
S1130E80F8940F92809193068150809393068091F9
S1130E909306811158C08091A006811133C056C0B9
S1130EA0E091B906F091BA06C681D781CE010C96BD
S1130EB00E94FA028E010E5F1F4FC8010E94FA02BF
S1130EC08E8990919D06981710F480939D0690E06A
S1130ED09C01220F331F220F331F220F331F820F57
S1130EE0931FB8018D52994F0E94A8029E89E091E8
S1130EF01207F09113078689981730F081E08093E8
S1130F009A0602C0C0E0D0E08091B4068111C8CF37
S1130F10CD2B11F00E947C04C0919B06CC2359F088
S1130F200E948106882319F081E080939A06C150BB
S1130F30B9F710929B0680919A06882331F00E949B
S1130F40C40381E003C080E001C080E00F900FBEC5
S1130F50DF91CF911F910F910895CF93DF93EC010F
S1130F60892B49F00E947B0660E0CE010E94A50512
S1130F700E943B0701C080E0811102C00E94C403AB
S1130F80DF91CF910895CF93DF9324C00E947B0615
S1130F90C091AB060E943B07CC23E1F00FB6F89456
S1130FA00F92E091B006F091B106C681D781CE01CF
S1130FB002960E94FA028091A00681508093A006B6
S1130FC08091AA0681508093AA060F900FBECE018D
S1130FD00E949B048091AA068111D8CFDF91CF9102
S1130FE008950E94C307FDCF80919306882321F0C2
S1130FF081E080939A06089510929A0620919D06A6
S113100001C02150822F90E0FC01EE0FFF1FEE0F74
S1131010FF1FEE0FFF1FE80FF91FED52F94F30814C
S1131020332379F3AC01440F551F440F551F440F6C
S1131030551F480F591FDF010180F281E02D028006
S1131040F381E02D1296FC93EE9311974A52594F77
S1131050E417F50729F442815381FD01528341834A
S1131060FC01EE0FFF1FEE0FFF1FEE0FFF1F8E0F91
S11310709F1FFC01ED52F94F0180F281E02D868122
S11310809781909313078093120720939D060895E8
S11310900F931F93CF93DF9300D000D0CDB7DEB76B
S11310A0082F84E0898385E08A8386E08B8387E048
S11310B08C8310E014C0402F50E0012E02C05595DF
S11310C047950A94E2F74170E1E0F0E0EC0FFD1F70
S11310D0E10FF11D608180E00E94B9001F5F1430B0
S11310E050F30F900F900F900F90DF91CF911F91BD
S11310F00F91089541E063E081E00E94B9008FE31D
S11311009FE10197F1F700C0000040E063E081E057
S11311100E94B9000895CF93C82F40E061E081E0B8
S11311200E94B90040E062E081E00E94B9008C2F87
S113113082958F700E9448080E947A088C2F0E9422
S113114048080E947A08CF910895CF93C82F41E0B0
S113115061E081E00E94B90040E062E081E00E9429
S1131160B9008C2F82958F700E9448080E947A08DB
S11311708C2F0E9448080E947A08CF9108952FEF7F
S113118083EF91E0215080409040E1F700C00000DF
S113119082E00E9448080E947A0882E00E9448087F
S11311A00E947A0888E00E9448080E947A088CE02D
S11311B00E948B0881E00E948B080895CF93DF93EF
S11311C0EC0103C00E94A508219688818111FACF01
S11311D0DF91CF9108951F93CF93DF93CDB7DEB7FF
S11311E02E970FB6F894DEBF0FBECDBFAC01892B8E
S11311F0D1F580E390E09A83898311E047C09A0196
S1131200ADECBCEC0E94350E969587959695879526
S1131210969587959C01220F331F880F991F880F7D
S1131220991F880F991F820F931F9A01281B390B4E
S1131230C901E12FF0E09927C096EE0FFF1F21E0CE
S113124030E02C0F3D1FE20FF31F918380839A013E
S11312500E94350EAC01569547955695479556957F
S113126047951F5F01C010E04115510541F60EC0BE
S11312701150E12FF0E0EE0FFF1F81E090E08C0FA2
S11312809D1FE80FF91F80810E94A5081111F0CF5E
S11312902E960FB6F894DEBF0FBECDBFDF91CF916F
S11312A01F91089590E4699F800D112480680E9425
S11312B08B0808950E948A090E94BC090E94E10AD1
S11312C00E94110B0E94170BE12CF12C01E020E08D
S11312D030E04AEF50E067E670E087E89BE00E9468
S11312E0FD0504E020E030E04AEF50E06EE670E0F7
S11312F08AE19BE00E94FD0500E020E030E04AEF37
S113130050E064E770E08EE79BE00E94FD050E94D8
S11313105106FFCF41E064E080E00E94490041E0D3
S113132065E080E00E94490041E066E080E00E94C0
S1131330490041E067E080E00E94490041E061E04B
S113134081E00E94490041E062E081E00E9449009E
S113135041E063E081E00E9449000E94960B41E075
S113136064E082E00E94490040E065E082E00E947F
S113137049000E94BF08089541E066E082E00E94AF
S1131380490041E067E082E00E94490041E062E0F8
S113139083E00E94490041E063E083E00E94490049
S11313A041E067E083E00E9449000895CF93C82F8D
S11313B041E066E082E00E94B90040E067E082E03C
S11313C00E94B90041E062E083E00E94B90040E07D
S11313D063E083E00E94B9008C2F0E942C0C81E012
S11313E080932107CF910895CF93C82F40E066E002
S11313F082E00E94B90041E067E082E00E94B90007
S113140040E062E083E00E94B90041E063E083E0F1
S11314100E94B9008C2F0E942C0C82E0809321073B
S1131420CF910895CF93C82F40E066E082E00E94F8
S1131430B90041E067E082E00E94B90041E062E067
S113144083E00E94B90040E063E083E00E94B900B9
S11314508C2F0E942C0C83E080932107CF91089558
S1131460CF93C82F41E066E082E00E94B90040E0DB
S113147067E082E00E94B90040E062E083E00E94FD
S1131480B90041E063E083E00E94B9008C2F0E9420
S11314902C0C84E080932107CF91089540E066E00E
S11314A082E00E94B90040E067E082E00E94B90057
S11314B040E062E083E00E94B90040E063E083E042
S11314C00E94B90085E08093210780E00E942C0CE3
S11314D00895CF93DF93EC0160E080E00E9452090D
S11314E08BE790E00E94DE0860E086E00E945209EB
S11314F0888190E00E94EB0860E089E00E94520934
S113150081E890E00E94DE0860E08DE00E945209CC
S11315108D818330A9F028F4813041F0823059F074
S11315201EC0843091F08530A9F019C086E890E09F
S11315300E94DE0818C08AE890E00E94DE0813C00A
S11315408EE890E00E94DE080EC081E990E00E94DF
S1131550DE0809C084E990E00E94DE0804C089E93D
S113156090E00E94DE0861E080E00E9452098DE96B
S113157090E00E94DE0861E084E00E9452098981C3
S1131580811105C082E990E00E94DE0817C08C81B9
S1131590811105C081EA90E00E94DE080FC08B81B2
S11315A0811105C083EA90E00E94DE0807C08A81A9
S11315B0811104C085EA90E00E94DE08DF91CF919A
S11315C0089540E063E082E00E94490040E060E06A
S11315D082E00E94490040E061E082E00E9449000C
S11315E040E062E082E00E9449000895CF93DF93D7
S11315F060E082E00E942901CCE1D7E08C8361E0C5
S113160082E00E9429018B8362E082E00E9429012A
S11316108A8363E082E00E9429018983DF91CF916C
S1131620089541E063E080E00E94490008950E942B
S11316309C0C089580911D078130B9F480911C079A
S11316408B3098F082E30E94D60904C082E290E0D5
S11316500E94AD0780911D07813021F480911C0701
S11316608B30A0F70E944E0A44C087E30E94F4091D
S113167089E290E00E94AD070E944E0A80911E0705
S1131680813061F090911F07913041F485E50E940B
S1131690120A8EE290E00E94AD0721C090911F07CC
S11316A0913051F0813041F485E50E94300A8EE298
S11316B090E00E94AD0713C0813041F485E50E949B
S11316C0300A8EE290E00E94AD0709C0913039F4EF
S11316D085E50E94120A8EE290E00E94AD0789E23D
S11316E090E00E94AD070E944E0A82E390E00E94BF
S11316F0AD0782E290E00E94AD079CCF8CE197E0B9
S11317000E94690A82E190E00E94AD07F7CF0E942F
S1131710A70C86EB9CE00E94D90C80931C070E94C6
S1131720F60A84E190E00E94AD07F1CF41E065E064
S113173083E00E9449000E94EC0B08951F920F92CF
S11317400FB60F9211242F933F934F935F936F9390
S11317507F938F939F93AF93BF93EF93FF93E09106
S11317601607F09117070995FF91EF91BF91AF917B
S11317709F918F917F916F915F914F913F912F91A5
S11317800F900FBE0F901F9018951F920F920FB6D7
S11317900F9211242F933F934F935F936F937F93F3
S11317A08F939F93AF93BF93EF93FF93E0911407AD
S11317B0F09115070995FF91EF91BF91AF919F911A
S11317C08F917F916F915F914F913F912F910F90E6
S11317D00FBE0F901F9018958FB590B78E7F90BF56
S11317E08FBD8FB590B7826090BF8FBD8EB59FB50A
S11317F088609FBD8EBD8EB59FB580619FBD8EBD37
S11318008FB590B7806890BF8FBD8FB590B78F7B31
S113181090BF8FBD8FB590B7806290BF8FBD8FB5DD
S113182090B78F7E90BF8FBD8EB59FB58E7F9FBDC5
S11318308EBD8EB59FB582609FBD8EBD8EB59FB5A2
S11318408B7F9FBD8EBD80E49CE997BD86BD8FEFE5
S113185090E099BD88BD089595B5987F95BD95B5DF
S1131860936095BD95B5986095BD95B5906495BD0B
S113187095B5906295BD95B59F7E95BD682F70E036
S113188080E090E00E941A0D23E333E343E250E446
S11318900E947E0D0E94E90C63BD08951F920F9271
S11318A00FB60F9211242F933F934F935F936F932F
S11318B07F938F939F93AF93BF93EF93FF93E091A5
S11318C01A07F0911B070995FF91EF91BF91AF9112
S11318D09F918F917F916F915F914F913F912F9144
S11318E00F900FBE0F901F9018951F920F920FB676
S11318F00F9211242F933F934F935F936F937F9392
S11319008F939F93AF93BF93EF93FF93E091180747
S1131910F09119070995FF91EF91BF91AF919F91B4
S11319208F917F916F915F914F913F912F910F9084
S11319300FBE0F901F90189586E880BD87E689B981
S11319408AB188608AB98AB180618AB9089541E010
S113195064E082E00E94B90085E38A95F1F7000013
S113196040E064E082E00E94B9000895CF9312BE83
S113197083E083BF65E082E00E9429018823D1F3DC
S1131980C0E007C008B600FE04C081E088BFCF5F96
S113199012BE65E082E00E942901813099F38C2F08
S11319A090E0982F882722B713BE820F911DCF9104
S11319B00895FC0109959C01A8E2B7E80E94350E40
S11319C020E231EA47E050E00E94130E8FEE820FCE
S11319D008950E945D0D88F09F5798F0B92F9927BC
S11319E0B751B0F0E1F0660F771F881F991F1AF006
S11319F0BA95C9F714C0B13091F00E94770DB1E0E7
S1131A0008950C94770D672F782F8827B85F39F0E5
S1131A10B93FCCF3869577956795B395D9F73EF49E
S1131A2090958095709561957F4F8F4F9F4F089546
S1131A30E89409C097FB3EF4909580957095619564
S1131A407F4F8F4F9F4F9923A9F0F92F96E9BB271A
S1131A509395F695879577956795B795F111F8CF96
S1131A60FAF4BB0F11F460FF1BC06F5F7F4F8F4F01
S1131A709F4F16C0882311F096E911C0772321F0F7
S1131A809EE8872F762F05C0662371F096E8862F8F
S1131A9070E060E02AF09A95660F771F881FDAF7E6
S1131AA0880F9695879597F9089557FD9058440F98
S1131AB0551F59F05F3F71F04795880F97FB991FA9
S1131AC061F09F3F79F08795089512161306140666
S1131AD0551FF2CF4695F1DF08C0161617061806F3
S1131AE0991FF1CF86957105610508940895E894CE
S1131AF0BB2766277727CB0197F908950E94910D9C
S1131B000C94020E0E94F40D38F00E94FB0D20F09C
S1131B10952311F00C94EB0D0C94F10D11240C94FD
S1131B20780D0E94550D70F3959FC1F3950F50E009
S1131B30551F629FF001729FBB27F00DB11D639F7B
S1131B40AA27F00DB11DAA1F649F6627B00DA11D21
S1131B50661F829F2227B00DA11D621F739FB00DC7
S1131B60A11D621F839FA00D611D221F749F332737
S1131B70A00D611D231F849F600D211D822F762FD0
S1131B806A2F11249F5750409AF0F1F088234AF0AD
S1131B90EE0FFF1FBB1F661F771F881F9150504019
S1131BA0A9F79E3F510580F00C94EB0D0C94780D31
S1131BB05F3FE4F3983ED4F3869577956795B795A0
S1131BC0F795E7959F5FC1F7FE2B880F911D9695BA
S1131BD0879597F9089597F99F6780E870E060E02A
S1131BE008959FEF80EC089500240A9416161706B2
S1131BF018060906089500240A94121613061406FA
S1131C0005060895092E0394000C11F4882352F05C
S1131C10BB0F40F4BF2B11F460FF04C06F5F7F4F14
S1131C208F4F9F4F0895A1E21A2EAA1BBB1BFD01E3
S1131C300DC0AA1FBB1FEE1FFF1FA217B307E407A7
S1131C40F50720F0A21BB30BE40BF50B661F771FFF
S1131C50881F991F1A9469F76095709580959095DF
S1131C609B01AC01BD01CF010895A29FB001B39FB8
S1131C70C001A39F700D811D1124911DB29F700D91
S10F1C80811D1124911D0895F894FFCFDC
S1131C8CDB0549444C4500556C74726153004D6F2F
S1131C9C76656D00446973706C6100446973743AC1
S1131CAC004469723A004657440042435700525765
S1131CBC004C460053746F7000554E4B004F424A13
S10B1CCC00420052004C00002C
S9030000FC
